{
  "contractName": "Dispute",
  "abi": [
    {
      "inputs": [
        {
          "internalType": "address",
          "name": "_firstParty",
          "type": "address"
        },
        {
          "internalType": "address",
          "name": "_secondParty",
          "type": "address"
        }
      ],
      "stateMutability": "nonpayable",
      "type": "constructor"
    },
    {
      "anonymous": false,
      "inputs": [
        {
          "indexed": true,
          "internalType": "address",
          "name": "previousOwner",
          "type": "address"
        },
        {
          "indexed": true,
          "internalType": "address",
          "name": "newOwner",
          "type": "address"
        }
      ],
      "name": "OwnershipTransferred",
      "type": "event"
    },
    {
      "anonymous": false,
      "inputs": [
        {
          "indexed": true,
          "internalType": "bytes32",
          "name": "role",
          "type": "bytes32"
        },
        {
          "indexed": true,
          "internalType": "bytes32",
          "name": "previousAdminRole",
          "type": "bytes32"
        },
        {
          "indexed": true,
          "internalType": "bytes32",
          "name": "newAdminRole",
          "type": "bytes32"
        }
      ],
      "name": "RoleAdminChanged",
      "type": "event"
    },
    {
      "anonymous": false,
      "inputs": [
        {
          "indexed": true,
          "internalType": "bytes32",
          "name": "role",
          "type": "bytes32"
        },
        {
          "indexed": true,
          "internalType": "address",
          "name": "account",
          "type": "address"
        },
        {
          "indexed": true,
          "internalType": "address",
          "name": "sender",
          "type": "address"
        }
      ],
      "name": "RoleGranted",
      "type": "event"
    },
    {
      "anonymous": false,
      "inputs": [
        {
          "indexed": true,
          "internalType": "bytes32",
          "name": "role",
          "type": "bytes32"
        },
        {
          "indexed": true,
          "internalType": "address",
          "name": "account",
          "type": "address"
        },
        {
          "indexed": true,
          "internalType": "address",
          "name": "sender",
          "type": "address"
        }
      ],
      "name": "RoleRevoked",
      "type": "event"
    },
    {
      "inputs": [],
      "name": "DEFAULT_ADMIN_ROLE",
      "outputs": [
        {
          "internalType": "bytes32",
          "name": "",
          "type": "bytes32"
        }
      ],
      "stateMutability": "view",
      "type": "function",
      "constant": true
    },
    {
      "inputs": [],
      "name": "PARTY_ROLE",
      "outputs": [
        {
          "internalType": "bytes32",
          "name": "",
          "type": "bytes32"
        }
      ],
      "stateMutability": "view",
      "type": "function",
      "constant": true
    },
    {
      "inputs": [
        {
          "internalType": "bytes32",
          "name": "role",
          "type": "bytes32"
        }
      ],
      "name": "getRoleAdmin",
      "outputs": [
        {
          "internalType": "bytes32",
          "name": "",
          "type": "bytes32"
        }
      ],
      "stateMutability": "view",
      "type": "function",
      "constant": true
    },
    {
      "inputs": [
        {
          "internalType": "bytes32",
          "name": "role",
          "type": "bytes32"
        },
        {
          "internalType": "address",
          "name": "account",
          "type": "address"
        }
      ],
      "name": "grantRole",
      "outputs": [],
      "stateMutability": "nonpayable",
      "type": "function"
    },
    {
      "inputs": [
        {
          "internalType": "bytes32",
          "name": "role",
          "type": "bytes32"
        },
        {
          "internalType": "address",
          "name": "account",
          "type": "address"
        }
      ],
      "name": "hasRole",
      "outputs": [
        {
          "internalType": "bool",
          "name": "",
          "type": "bool"
        }
      ],
      "stateMutability": "view",
      "type": "function",
      "constant": true
    },
    {
      "inputs": [],
      "name": "owner",
      "outputs": [
        {
          "internalType": "address",
          "name": "",
          "type": "address"
        }
      ],
      "stateMutability": "view",
      "type": "function",
      "constant": true
    },
    {
      "inputs": [
        {
          "internalType": "uint256",
          "name": "",
          "type": "uint256"
        }
      ],
      "name": "parties",
      "outputs": [
        {
          "internalType": "address payable",
          "name": "add",
          "type": "address"
        },
        {
          "internalType": "uint256",
          "name": "evidenceSize",
          "type": "uint256"
        }
      ],
      "stateMutability": "view",
      "type": "function",
      "constant": true
    },
    {
      "inputs": [],
      "name": "renounceOwnership",
      "outputs": [],
      "stateMutability": "nonpayable",
      "type": "function"
    },
    {
      "inputs": [
        {
          "internalType": "bytes32",
          "name": "role",
          "type": "bytes32"
        },
        {
          "internalType": "address",
          "name": "account",
          "type": "address"
        }
      ],
      "name": "renounceRole",
      "outputs": [],
      "stateMutability": "nonpayable",
      "type": "function"
    },
    {
      "inputs": [
        {
          "internalType": "bytes32",
          "name": "role",
          "type": "bytes32"
        },
        {
          "internalType": "address",
          "name": "account",
          "type": "address"
        }
      ],
      "name": "revokeRole",
      "outputs": [],
      "stateMutability": "nonpayable",
      "type": "function"
    },
    {
      "inputs": [
        {
          "internalType": "bytes4",
          "name": "interfaceId",
          "type": "bytes4"
        }
      ],
      "name": "supportsInterface",
      "outputs": [
        {
          "internalType": "bool",
          "name": "",
          "type": "bool"
        }
      ],
      "stateMutability": "view",
      "type": "function",
      "constant": true
    },
    {
      "inputs": [
        {
          "internalType": "address",
          "name": "newOwner",
          "type": "address"
        }
      ],
      "name": "transferOwnership",
      "outputs": [],
      "stateMutability": "nonpayable",
      "type": "function"
    },
    {
      "stateMutability": "payable",
      "type": "receive",
      "payable": true
    },
    {
      "inputs": [
        {
          "internalType": "address",
          "name": "operator",
          "type": "address"
        },
        {
          "internalType": "address",
          "name": "from",
          "type": "address"
        },
        {
          "internalType": "uint256",
          "name": "tokenId",
          "type": "uint256"
        },
        {
          "internalType": "bytes",
          "name": "data",
          "type": "bytes"
        }
      ],
      "name": "onERC721Received",
      "outputs": [
        {
          "internalType": "bytes4",
          "name": "",
          "type": "bytes4"
        }
      ],
      "stateMutability": "nonpayable",
      "type": "function"
    },
    {
      "inputs": [],
      "name": "getCurrentState",
      "outputs": [
        {
          "internalType": "string",
          "name": "",
          "type": "string"
        }
      ],
      "stateMutability": "view",
      "type": "function",
      "constant": true
    },
    {
      "inputs": [
        {
          "internalType": "uint256",
          "name": "party",
          "type": "uint256"
        }
      ],
      "name": "getNumberOfElementsFromParty",
      "outputs": [
        {
          "internalType": "uint256",
          "name": "",
          "type": "uint256"
        }
      ],
      "stateMutability": "view",
      "type": "function",
      "constant": true
    },
    {
      "inputs": [
        {
          "internalType": "uint256",
          "name": "party",
          "type": "uint256"
        },
        {
          "internalType": "uint256",
          "name": "evidenceIndex",
          "type": "uint256"
        }
      ],
      "name": "getEvidenceFrom",
      "outputs": [
        {
          "components": [
            {
              "internalType": "address",
              "name": "contractAddress",
              "type": "address"
            },
            {
              "internalType": "uint256",
              "name": "tokenId",
              "type": "uint256"
            }
          ],
          "internalType": "struct Dispute.Evidence",
          "name": "",
          "type": "tuple"
        }
      ],
      "stateMutability": "view",
      "type": "function",
      "constant": true
    },
    {
      "inputs": [
        {
          "internalType": "uint64",
          "name": "_amountFirstParty",
          "type": "uint64"
        },
        {
          "internalType": "uint64",
          "name": "_amountSecondParty",
          "type": "uint64"
        }
      ],
      "name": "solveDispute",
      "outputs": [],
      "stateMutability": "nonpayable",
      "type": "function"
    }
  ],
  "bytecode": "0x60806040523480156200001157600080fd5b5060405162002e2738038062002e278339818101604052810190620000379190620004df565b620000576200004b6200012c60201b60201c565b6200013460201b60201c565b620000897fb922200089753d631c36b6eac46c115660e057765c8df5c796796636265fc46983620001f860201b60201c565b620000bb7fb922200089753d631c36b6eac46c115660e057765c8df5c796796636265fc46982620001f860201b60201c565b620000cc826200020e60201b60201c565b620000dd816200020e60201b60201c565b6040518060400160405280600481526020017f4f50454e0000000000000000000000000000000000000000000000000000000081525060029081620001239190620007a0565b50505062000887565b600033905090565b60008060009054906101000a900473ffffffffffffffffffffffffffffffffffffffff169050816000806101000a81548173ffffffffffffffffffffffffffffffffffffffff021916908373ffffffffffffffffffffffffffffffffffffffff1602179055508173ffffffffffffffffffffffffffffffffffffffff168173ffffffffffffffffffffffffffffffffffffffff167f8be0079c531659141344cd1fd0a4f28419497f9722a3daafe3b4186f6b6457e060405160405180910390a35050565b6200020a82826200031960201b60201c565b5050565b600060036001816001815401808255809150500390600052602060002090600302019050818160000160006101000a81548173ffffffffffffffffffffffffffffffffffffffff021916908373ffffffffffffffffffffffffffffffffffffffff160217905550600081600201819055506040518060400160405280600073ffffffffffffffffffffffffffffffffffffffff168152602001600181525081600101600080815260200190815260200160002060008201518160000160006101000a81548173ffffffffffffffffffffffffffffffffffffffff021916908373ffffffffffffffffffffffffffffffffffffffff160217905550602082015181600101559050505050565b6200032b82826200040a60201b60201c565b6200040657600180600084815260200190815260200160002060000160008373ffffffffffffffffffffffffffffffffffffffff1673ffffffffffffffffffffffffffffffffffffffff16815260200190815260200160002060006101000a81548160ff021916908315150217905550620003ab6200012c60201b60201c565b73ffffffffffffffffffffffffffffffffffffffff168173ffffffffffffffffffffffffffffffffffffffff16837f2f8788117e7eff1d82e926ec794901d17c78024a50270940304540a733656f0d60405160405180910390a45b5050565b60006001600084815260200190815260200160002060000160008373ffffffffffffffffffffffffffffffffffffffff1673ffffffffffffffffffffffffffffffffffffffff16815260200190815260200160002060009054906101000a900460ff16905092915050565b600080fd5b600073ffffffffffffffffffffffffffffffffffffffff82169050919050565b6000620004a7826200047a565b9050919050565b620004b9816200049a565b8114620004c557600080fd5b50565b600081519050620004d981620004ae565b92915050565b60008060408385031215620004f957620004f862000475565b5b60006200050985828601620004c8565b92505060206200051c85828601620004c8565b9150509250929050565b600081519050919050565b7f4e487b7100000000000000000000000000000000000000000000000000000000600052604160045260246000fd5b7f4e487b7100000000000000000000000000000000000000000000000000000000600052602260045260246000fd5b60006002820490506001821680620005a857607f821691505b602082108103620005be57620005bd62000560565b5b50919050565b60008190508160005260206000209050919050565b60006020601f8301049050919050565b600082821b905092915050565b600060088302620006287fffffffffffffffffffffffffffffffffffffffffffffffffffffffffffffffff82620005e9565b620006348683620005e9565b95508019841693508086168417925050509392505050565b6000819050919050565b6000819050919050565b6000620006816200067b62000675846200064c565b62000656565b6200064c565b9050919050565b6000819050919050565b6200069d8362000660565b620006b5620006ac8262000688565b848454620005f6565b825550505050565b600090565b620006cc620006bd565b620006d981848462000692565b505050565b5b818110156200070157620006f5600082620006c2565b600181019050620006df565b5050565b601f82111562000750576200071a81620005c4565b6200072584620005d9565b8101602085101562000735578190505b6200074d6200074485620005d9565b830182620006de565b50505b505050565b600082821c905092915050565b6000620007756000198460080262000755565b1980831691505092915050565b600062000790838362000762565b9150826002028217905092915050565b620007ab8262000526565b67ffffffffffffffff811115620007c757620007c662000531565b5b620007d382546200058f565b620007e082828562000705565b600060209050601f83116001811462000818576000841562000803578287015190505b6200080f858262000782565b8655506200087f565b601f1984166200082886620005c4565b60005b8281101562000852578489015182556001820191506020850194506020810190506200082b565b868310156200087257848901516200086e601f89168262000762565b8355505b6001600288020188555050505b505050505050565b61259080620008976000396000f3fe6080604052600436106101025760003560e01c8063378aa701116100955780638da5cb5b116100645780638da5cb5b1461036557806391d1485414610390578063a217fddf146103cd578063d547741f146103f8578063f2fde38b1461042157610109565b8063378aa701146102a8578063523bdb52146102d357806370651a1814610310578063715018a61461034e57610109565b8063248a9ca3116100d1578063248a9ca3146101ee5780632f2ff15d1461022b57806330104c3e1461025457806336568abe1461027f57610109565b806301ffc9a71461010e578063062c4de91461014b578063150b7a02146101745780632194e007146101b157610109565b3661010957005b600080fd5b34801561011a57600080fd5b5061013560048036038101906101309190611542565b61044a565b604051610142919061158a565b60405180910390f35b34801561015757600080fd5b50610172600480360381019061016d91906115e5565b6104c4565b005b34801561018057600080fd5b5061019b6004803603810190610196919061171e565b61051f565b6040516101a891906117b5565b60405180910390f35b3480156101bd57600080fd5b506101d860048036038101906101d391906117d0565b6108ba565b6040516101e5919061180c565b60405180910390f35b3480156101fa57600080fd5b506102156004803603810190610210919061185d565b6108e9565b6040516102229190611899565b60405180910390f35b34801561023757600080fd5b50610252600480360381019061024d91906118b4565b610909565b005b34801561026057600080fd5b5061026961092a565b6040516102769190611899565b60405180910390f35b34801561028b57600080fd5b506102a660048036038101906102a191906118b4565b61094e565b005b3480156102b457600080fd5b506102bd6109d1565b6040516102ca919061198d565b60405180910390f35b3480156102df57600080fd5b506102fa60048036038101906102f591906119af565b610a63565b6040516103079190611a3c565b60405180910390f35b34801561031c57600080fd5b50610337600480360381019061033291906117d0565b610b14565b604051610345929190611a78565b60405180910390f35b34801561035a57600080fd5b50610363610b68565b005b34801561037157600080fd5b5061037a610b7c565b6040516103879190611ab0565b60405180910390f35b34801561039c57600080fd5b506103b760048036038101906103b291906118b4565b610ba5565b6040516103c4919061158a565b60405180910390f35b3480156103d957600080fd5b506103e2610c10565b6040516103ef9190611899565b60405180910390f35b34801561040457600080fd5b5061041f600480360381019061041a91906118b4565b610c17565b005b34801561042d57600080fd5b5061044860048036038101906104439190611acb565b610c38565b005b60007f7965db0b000000000000000000000000000000000000000000000000000000007bffffffffffffffffffffffffffffffffffffffffffffffffffffffff1916827bffffffffffffffffffffffffffffffffffffffffffffffffffffffff191614806104bd57506104bc82610cbb565b5b9050919050565b6104cc610d25565b6104d68282610da3565b6040518060400160405280600681526020017f434c4f53454400000000000000000000000000000000000000000000000000008152506002908161051a9190611d33565b505050565b600061054b7fb922200089753d631c36b6eac46c115660e057765c8df5c796796636265fc46986610ba5565b61058a576040517f08c379a000000000000000000000000000000000000000000000000000000000815260040161058190611e77565b60405180910390fd5b600060036000815481106105a1576105a0611e97565b5b906000526020600020906003020160000160009054906101000a900473ffffffffffffffffffffffffffffffffffffffff1673ffffffffffffffffffffffffffffffffffffffff168673ffffffffffffffffffffffffffffffffffffffff160361069857600360008154811061061a57610619611e97565b5b906000526020600020906003020190506106547fb922200089753d631c36b6eac46c115660e057765c8df5c796796636265fc46987610ba5565b610693576040517f08c379a000000000000000000000000000000000000000000000000000000000815260040161068a90611f12565b60405180910390fd5b6107f3565b60036001815481106106ad576106ac611e97565b5b906000526020600020906003020160000160009054906101000a900473ffffffffffffffffffffffffffffffffffffffff1673ffffffffffffffffffffffffffffffffffffffff168673ffffffffffffffffffffffffffffffffffffffff16036107a457600360018154811061072657610725611e97565b5b906000526020600020906003020190506107607fb922200089753d631c36b6eac46c115660e057765c8df5c796796636265fc46987610ba5565b61079f576040517f08c379a000000000000000000000000000000000000000000000000000000000815260040161079690611f7e565b60405180910390fd5b6107f2565b60006107e5576040517f08c379a00000000000000000000000000000000000000000000000000000000081526004016107dc90612010565b60405180910390fd5b600060e01b9150506108b1565b5b60405180604001604052808873ffffffffffffffffffffffffffffffffffffffff168152602001868152508160010160008360020154815260200190815260200160002060008201518160000160006101000a81548173ffffffffffffffffffffffffffffffffffffffff021916908373ffffffffffffffffffffffffffffffffffffffff160217905550602082015181600101559050508060020160008154809291906108a09061205f565b919050555063150b7a0260e01b9150505b95945050505050565b6000600382815481106108d0576108cf611e97565b5b9060005260206000209060030201600201549050919050565b600060016000838152602001908152602001600020600101549050919050565b610912826108e9565b61091b81610f35565b6109258383610f49565b505050565b7fb922200089753d631c36b6eac46c115660e057765c8df5c796796636265fc46981565b610956611029565b73ffffffffffffffffffffffffffffffffffffffff168173ffffffffffffffffffffffffffffffffffffffff16146109c3576040517f08c379a00000000000000000000000000000000000000000000000000000000081526004016109ba90612119565b60405180910390fd5b6109cd8282611031565b5050565b6060600280546109e090611b56565b80601f0160208091040260200160405190810160405280929190818152602001828054610a0c90611b56565b8015610a595780601f10610a2e57610100808354040283529160200191610a59565b820191906000526020600020905b815481529060010190602001808311610a3c57829003601f168201915b5050505050905090565b610a6b6114b0565b60038381548110610a7f57610a7e611e97565b5b906000526020600020906003020160010160008381526020019081526020016000206040518060400160405290816000820160009054906101000a900473ffffffffffffffffffffffffffffffffffffffff1673ffffffffffffffffffffffffffffffffffffffff1673ffffffffffffffffffffffffffffffffffffffff168152602001600182015481525050905092915050565b60038181548110610b2457600080fd5b90600052602060002090600302016000915090508060000160009054906101000a900473ffffffffffffffffffffffffffffffffffffffff16908060020154905082565b610b70610d25565b610b7a6000611113565b565b60008060009054906101000a900473ffffffffffffffffffffffffffffffffffffffff16905090565b60006001600084815260200190815260200160002060000160008373ffffffffffffffffffffffffffffffffffffffff1673ffffffffffffffffffffffffffffffffffffffff16815260200190815260200160002060009054906101000a900460ff16905092915050565b6000801b81565b610c20826108e9565b610c2981610f35565b610c338383611031565b505050565b610c40610d25565b600073ffffffffffffffffffffffffffffffffffffffff168173ffffffffffffffffffffffffffffffffffffffff1603610caf576040517f08c379a0000000000000000000000000000000000000000000000000000000008152600401610ca6906121ab565b60405180910390fd5b610cb881611113565b50565b60007f01ffc9a7000000000000000000000000000000000000000000000000000000007bffffffffffffffffffffffffffffffffffffffffffffffffffffffff1916827bffffffffffffffffffffffffffffffffffffffffffffffffffffffff1916149050919050565b610d2d611029565b73ffffffffffffffffffffffffffffffffffffffff16610d4b610b7c565b73ffffffffffffffffffffffffffffffffffffffff1614610da1576040517f08c379a0000000000000000000000000000000000000000000000000000000008152600401610d9890612217565b60405180910390fd5b565b610dab610d25565b8082610db79190612237565b67ffffffffffffffff16471015610e03576040517f08c379a0000000000000000000000000000000000000000000000000000000008152600401610dfa906122e7565b60405180910390fd5b6003600081548110610e1857610e17611e97565b5b906000526020600020906003020160000160009054906101000a900473ffffffffffffffffffffffffffffffffffffffff1673ffffffffffffffffffffffffffffffffffffffff166108fc8367ffffffffffffffff169081150290604051600060405180830381858888f19350505050158015610e99573d6000803e3d6000fd5b506003600181548110610eaf57610eae611e97565b5b906000526020600020906003020160000160009054906101000a900473ffffffffffffffffffffffffffffffffffffffff1673ffffffffffffffffffffffffffffffffffffffff166108fc8267ffffffffffffffff169081150290604051600060405180830381858888f19350505050158015610f30573d6000803e3d6000fd5b505050565b610f4681610f41611029565b6111d7565b50565b610f538282610ba5565b61102557600180600084815260200190815260200160002060000160008373ffffffffffffffffffffffffffffffffffffffff1673ffffffffffffffffffffffffffffffffffffffff16815260200190815260200160002060006101000a81548160ff021916908315150217905550610fca611029565b73ffffffffffffffffffffffffffffffffffffffff168173ffffffffffffffffffffffffffffffffffffffff16837f2f8788117e7eff1d82e926ec794901d17c78024a50270940304540a733656f0d60405160405180910390a45b5050565b600033905090565b61103b8282610ba5565b1561110f5760006001600084815260200190815260200160002060000160008373ffffffffffffffffffffffffffffffffffffffff1673ffffffffffffffffffffffffffffffffffffffff16815260200190815260200160002060006101000a81548160ff0219169083151502179055506110b4611029565b73ffffffffffffffffffffffffffffffffffffffff168173ffffffffffffffffffffffffffffffffffffffff16837ff6391f5c32d9c69d2a47ea670b442974b53935d1edc7fd64eb21e047a839171b60405160405180910390a45b5050565b60008060009054906101000a900473ffffffffffffffffffffffffffffffffffffffff169050816000806101000a81548173ffffffffffffffffffffffffffffffffffffffff021916908373ffffffffffffffffffffffffffffffffffffffff1602179055508173ffffffffffffffffffffffffffffffffffffffff168173ffffffffffffffffffffffffffffffffffffffff167f8be0079c531659141344cd1fd0a4f28419497f9722a3daafe3b4186f6b6457e060405160405180910390a35050565b6111e18282610ba5565b611270576112068173ffffffffffffffffffffffffffffffffffffffff166014611274565b6112148360001c6020611274565b6040516020016112259291906123db565b6040516020818303038152906040526040517f08c379a0000000000000000000000000000000000000000000000000000000008152600401611267919061198d565b60405180910390fd5b5050565b6060600060028360026112879190612415565b611291919061246f565b67ffffffffffffffff8111156112aa576112a9611af8565b5b6040519080825280601f01601f1916602001820160405280156112dc5781602001600182028036833780820191505090505b5090507f30000000000000000000000000000000000000000000000000000000000000008160008151811061131457611313611e97565b5b60200101907effffffffffffffffffffffffffffffffffffffffffffffffffffffffffffff1916908160001a9053507f78000000000000000000000000000000000000000000000000000000000000008160018151811061137857611377611e97565b5b60200101907effffffffffffffffffffffffffffffffffffffffffffffffffffffffffffff1916908160001a905350600060018460026113b89190612415565b6113c2919061246f565b90505b6001811115611462577f3031323334353637383961626364656600000000000000000000000000000000600f86166010811061140457611403611e97565b5b1a60f81b82828151811061141b5761141a611e97565b5b60200101907effffffffffffffffffffffffffffffffffffffffffffffffffffffffffffff1916908160001a905350600485901c94508061145b906124c5565b90506113c5565b50600084146114a6576040517f08c379a000000000000000000000000000000000000000000000000000000000815260040161149d9061253a565b60405180910390fd5b8091505092915050565b6040518060400160405280600073ffffffffffffffffffffffffffffffffffffffff168152602001600081525090565b600080fd5b600080fd5b60007fffffffff0000000000000000000000000000000000000000000000000000000082169050919050565b61151f816114ea565b811461152a57600080fd5b50565b60008135905061153c81611516565b92915050565b600060208284031215611558576115576114e0565b5b60006115668482850161152d565b91505092915050565b60008115159050919050565b6115848161156f565b82525050565b600060208201905061159f600083018461157b565b92915050565b600067ffffffffffffffff82169050919050565b6115c2816115a5565b81146115cd57600080fd5b50565b6000813590506115df816115b9565b92915050565b600080604083850312156115fc576115fb6114e0565b5b600061160a858286016115d0565b925050602061161b858286016115d0565b9150509250929050565b600073ffffffffffffffffffffffffffffffffffffffff82169050919050565b600061165082611625565b9050919050565b61166081611645565b811461166b57600080fd5b50565b60008135905061167d81611657565b92915050565b6000819050919050565b61169681611683565b81146116a157600080fd5b50565b6000813590506116b38161168d565b92915050565b600080fd5b600080fd5b600080fd5b60008083601f8401126116de576116dd6116b9565b5b8235905067ffffffffffffffff8111156116fb576116fa6116be565b5b602083019150836001820283011115611717576117166116c3565b5b9250929050565b60008060008060006080868803121561173a576117396114e0565b5b60006117488882890161166e565b95505060206117598882890161166e565b945050604061176a888289016116a4565b935050606086013567ffffffffffffffff81111561178b5761178a6114e5565b5b611797888289016116c8565b92509250509295509295909350565b6117af816114ea565b82525050565b60006020820190506117ca60008301846117a6565b92915050565b6000602082840312156117e6576117e56114e0565b5b60006117f4848285016116a4565b91505092915050565b61180681611683565b82525050565b600060208201905061182160008301846117fd565b92915050565b6000819050919050565b61183a81611827565b811461184557600080fd5b50565b60008135905061185781611831565b92915050565b600060208284031215611873576118726114e0565b5b600061188184828501611848565b91505092915050565b61189381611827565b82525050565b60006020820190506118ae600083018461188a565b92915050565b600080604083850312156118cb576118ca6114e0565b5b60006118d985828601611848565b92505060206118ea8582860161166e565b9150509250929050565b600081519050919050565b600082825260208201905092915050565b60005b8381101561192e578082015181840152602081019050611913565b8381111561193d576000848401525b50505050565b6000601f19601f8301169050919050565b600061195f826118f4565b61196981856118ff565b9350611979818560208601611910565b61198281611943565b840191505092915050565b600060208201905081810360008301526119a78184611954565b905092915050565b600080604083850312156119c6576119c56114e0565b5b60006119d4858286016116a4565b92505060206119e5858286016116a4565b9150509250929050565b6119f881611645565b82525050565b611a0781611683565b82525050565b604082016000820151611a2360008501826119ef565b506020820151611a3660208501826119fe565b50505050565b6000604082019050611a516000830184611a0d565b92915050565b6000611a6282611625565b9050919050565b611a7281611a57565b82525050565b6000604082019050611a8d6000830185611a69565b611a9a60208301846117fd565b9392505050565b611aaa81611645565b82525050565b6000602082019050611ac56000830184611aa1565b92915050565b600060208284031215611ae157611ae06114e0565b5b6000611aef8482850161166e565b91505092915050565b7f4e487b7100000000000000000000000000000000000000000000000000000000600052604160045260246000fd5b7f4e487b7100000000000000000000000000000000000000000000000000000000600052602260045260246000fd5b60006002820490506001821680611b6e57607f821691505b602082108103611b8157611b80611b27565b5b50919050565b60008190508160005260206000209050919050565b60006020601f8301049050919050565b600082821b905092915050565b600060088302611be97fffffffffffffffffffffffffffffffffffffffffffffffffffffffffffffffff82611bac565b611bf38683611bac565b95508019841693508086168417925050509392505050565b6000819050919050565b6000611c30611c2b611c2684611683565b611c0b565b611683565b9050919050565b6000819050919050565b611c4a83611c15565b611c5e611c5682611c37565b848454611bb9565b825550505050565b600090565b611c73611c66565b611c7e818484611c41565b505050565b5b81811015611ca257611c97600082611c6b565b600181019050611c84565b5050565b601f821115611ce757611cb881611b87565b611cc184611b9c565b81016020851015611cd0578190505b611ce4611cdc85611b9c565b830182611c83565b50505b505050565b600082821c905092915050565b6000611d0a60001984600802611cec565b1980831691505092915050565b6000611d238383611cf9565b9150826002028217905092915050565b611d3c826118f4565b67ffffffffffffffff811115611d5557611d54611af8565b5b611d5f8254611b56565b611d6a828285611ca6565b600060209050601f831160018114611d9d5760008415611d8b578287015190505b611d958582611d17565b865550611dfd565b601f198416611dab86611b87565b60005b82811015611dd357848901518255600182019150602085019450602081019050611dae565b86831015611df05784890151611dec601f891682611cf9565b8355505b6001600288020188555050505b505050505050565b7f43616c6c6572206973206e6f74206120706172747920696e766f6c766564206960008201527f6e20746865206469737075746500000000000000000000000000000000000000602082015250565b6000611e61602d836118ff565b9150611e6c82611e05565b604082019050919050565b60006020820190508181036000830152611e9081611e54565b9050919050565b7f4e487b7100000000000000000000000000000000000000000000000000000000600052603260045260246000fd5b7f5061727479203000000000000000000000000000000000000000000000000000600082015250565b6000611efc6007836118ff565b9150611f0782611ec6565b602082019050919050565b60006020820190508181036000830152611f2b81611eef565b9050919050565b7f5061727479203100000000000000000000000000000000000000000000000000600082015250565b6000611f686007836118ff565b9150611f7382611f32565b602082019050919050565b60006020820190508181036000830152611f9781611f5b565b9050919050565b7f4578706563746564202766726f6d2720746f206265207468652061646472657360008201527f73206f6620746865206669727374206f72207365636f6e642070617274790000602082015250565b6000611ffa603e836118ff565b915061200582611f9e565b604082019050919050565b6000602082019050818103600083015261202981611fed565b9050919050565b7f4e487b7100000000000000000000000000000000000000000000000000000000600052601160045260246000fd5b600061206a82611683565b91507fffffffffffffffffffffffffffffffffffffffffffffffffffffffffffffffff820361209c5761209b612030565b5b600182019050919050565b7f416363657373436f6e74726f6c3a2063616e206f6e6c792072656e6f756e636560008201527f20726f6c657320666f722073656c660000000000000000000000000000000000602082015250565b6000612103602f836118ff565b915061210e826120a7565b604082019050919050565b60006020820190508181036000830152612132816120f6565b9050919050565b7f4f776e61626c653a206e6577206f776e657220697320746865207a65726f206160008201527f6464726573730000000000000000000000000000000000000000000000000000602082015250565b60006121956026836118ff565b91506121a082612139565b604082019050919050565b600060208201905081810360008301526121c481612188565b9050919050565b7f4f776e61626c653a2063616c6c6572206973206e6f7420746865206f776e6572600082015250565b60006122016020836118ff565b915061220c826121cb565b602082019050919050565b60006020820190508181036000830152612230816121f4565b9050919050565b6000612242826115a5565b915061224d836115a5565b92508267ffffffffffffffff0382111561226a57612269612030565b5b828201905092915050565b7f496e73756666696369656e742062616c616e636520746f20706572666f726d2060008201527f746865206f7065726174696f6e00000000000000000000000000000000000000602082015250565b60006122d1602d836118ff565b91506122dc82612275565b604082019050919050565b60006020820190508181036000830152612300816122c4565b9050919050565b600081905092915050565b7f416363657373436f6e74726f6c3a206163636f756e7420000000000000000000600082015250565b6000612348601783612307565b915061235382612312565b601782019050919050565b6000612369826118f4565b6123738185612307565b9350612383818560208601611910565b80840191505092915050565b7f206973206d697373696e6720726f6c6520000000000000000000000000000000600082015250565b60006123c5601183612307565b91506123d08261238f565b601182019050919050565b60006123e68261233b565b91506123f2828561235e565b91506123fd826123b8565b9150612409828461235e565b91508190509392505050565b600061242082611683565b915061242b83611683565b9250817fffffffffffffffffffffffffffffffffffffffffffffffffffffffffffffffff048311821515161561246457612463612030565b5b828202905092915050565b600061247a82611683565b915061248583611683565b9250827fffffffffffffffffffffffffffffffffffffffffffffffffffffffffffffffff038211156124ba576124b9612030565b5b828201905092915050565b60006124d082611683565b9150600082036124e3576124e2612030565b5b600182039050919050565b7f537472696e67733a20686578206c656e67746820696e73756666696369656e74600082015250565b60006125246020836118ff565b915061252f826124ee565b602082019050919050565b6000602082019050818103600083015261255381612517565b905091905056fea2646970667358221220a57d0cb683fde15fc8cda363410509da3ffda5311dd8a7a3d57b6408e618f99e64736f6c634300080f0033",
  "immutableReferences": {},
  "source": "//SPDX-License-Identifier: UNLICENSED\n\npragma solidity ^0.8.0;\n\nimport \"@openzeppelin/contracts/access/Ownable.sol\";\nimport \"@openzeppelin/contracts/access/AccessControl.sol\";\nimport \"@openzeppelin/contracts/token/ERC721/IERC721Receiver.sol\";\nimport \"@openzeppelin/contracts/utils/Strings.sol\";\n\ncontract Dispute is Ownable, AccessControl, IERC721Receiver{ \n\n    bytes32 public constant PARTY_ROLE = keccak256(\"PARTY_ROLE\");\n\n    struct Evidence {\n        address contractAddress;\n        uint256 tokenId;\n    }\n\n    struct Party {\n        address payable add;\n        mapping(uint => Evidence) evidence;\n        uint evidenceSize;\n    }\n\n    string state;\n\n    //TODO, esto debera ser pblico?\n    Party[] public parties;\n\n\n    modifier assertTwoParties(){\n        assert(parties.length == 2);\n        _;\n    }\n\n    constructor(address _firstParty, address _secondParty){\n        _setupRole(PARTY_ROLE, _firstParty);\n        _setupRole(PARTY_ROLE, _secondParty);\n        \n        _createNewParty(_firstParty);\n        _createNewParty(_secondParty);\n\n        state = 'OPEN';\n    }\n\n    function _createNewParty(address _add) private{\n        Party storage p = parties.push();\n        p.add = payable(_add);\n        p.evidenceSize = 0;\n        p.evidence[0] = Evidence(0x0000000000000000000000000000000000000000, 1);\n    }\n\n\n    /*\n    Recibir un token ERC721 de evidencia y agregarlo a ndice de evidencia provista por el party que lo llam.\n    */\n    function onERC721Received(address operator, address from, uint256 tokenId, bytes calldata data) public returns(bytes4) {\n\n        //TODO Slo debe permitir recibir el token si fue minteado por el mismo address que lo enva.\n        require(hasRole(PARTY_ROLE, from), \"Caller is not a party involved in the dispute\");\n        \n        Party storage party;\n        if(from == parties[0].add){\n            party = parties[0];\n            require(hasRole(PARTY_ROLE, from), \"Party 0\");\n        } else if(from == parties[1].add){\n            party = parties[1];\n            require(hasRole(PARTY_ROLE, from), \"Party 1\");\n        } else {\n            require(false, \"Expected 'from' to be the address of the first or second party\");\n            return bytes4(0x0);\n        }\n        \n        party.evidence[party.evidenceSize] = Evidence(operator, tokenId);\n        party.evidenceSize++;\n\n        return this.onERC721Received.selector;\n    }\n\n    function getCurrentState() public view returns(string memory){\n        return state;\n    }\n\n    function getNumberOfElementsFromParty(uint party) public view returns(uint) {\n        return parties[party].evidenceSize;\n    }\n\n    function getEvidenceFrom(uint party, uint evidenceIndex) public view returns(Evidence memory){\n        return parties[party].evidence[evidenceIndex];\n    }\n\n    function solveDispute(uint64 _amountFirstParty, uint64 _amountSecondParty) public onlyOwner {\n\n        //TODO, slo se debera resovler la disputa si las dos partes han puesto dinero en el contrato.\n\n        disperseMoney(_amountFirstParty, _amountSecondParty);\n\n        state = 'CLOSED';\n\n    }\n\n    function disperseMoney(uint64 _amountFirstParty, uint64 _amountSecondParty) private onlyOwner {\n        //1. Debe recibir addresses y cantidad de dinero a enviar a cada address.\n        \n        //2. Debe verificar si balance que tiene es suficiente para realizar los pagos.\n\n        //TODO, qu pasa si amountFirstParty + amountSecondParty > max uint64?\n        require(address(this).balance >= _amountFirstParty + _amountSecondParty, \"Insufficient balance to perform the operation\");\n\n        //3. Debe realizar los pagos.\n        parties[0].add.transfer(_amountFirstParty);\n        parties[1].add.transfer(_amountSecondParty);\n    }\n\n    // @notice Will receive any eth sent to the contract\n    receive () external payable {\n        \n    }\n\n\n}",
  "sourcePath": "/home/felipe/Documents/Web3Dispute/Contracts/contracts/dispute/Dispute.sol",
  "compiler": {
    "name": "solc",
    "version": "0.8.15+commit.e14f2714.Emscripten.clang"
  },
  "schemaVersion": "3.4.9",
  "updatedAt": "2022-08-11T15:59:28.069Z",
  "networkType": "ethereum",
  "devdoc": {
    "kind": "dev",
    "methods": {
      "getRoleAdmin(bytes32)": {
        "details": "Returns the admin role that controls `role`. See {grantRole} and {revokeRole}. To change a role's admin, use {_setRoleAdmin}."
      },
      "grantRole(bytes32,address)": {
        "details": "Grants `role` to `account`. If `account` had not been already granted `role`, emits a {RoleGranted} event. Requirements: - the caller must have ``role``'s admin role. May emit a {RoleGranted} event."
      },
      "hasRole(bytes32,address)": {
        "details": "Returns `true` if `account` has been granted `role`."
      },
      "onERC721Received(address,address,uint256,bytes)": {
        "details": "Whenever an {IERC721} `tokenId` token is transferred to this contract via {IERC721-safeTransferFrom} by `operator` from `from`, this function is called. It must return its Solidity selector to confirm the token transfer. If any other value is returned or the interface is not implemented by the recipient, the transfer will be reverted. The selector can be obtained in Solidity with `IERC721Receiver.onERC721Received.selector`."
      },
      "owner()": {
        "details": "Returns the address of the current owner."
      },
      "renounceOwnership()": {
        "details": "Leaves the contract without owner. It will not be possible to call `onlyOwner` functions anymore. Can only be called by the current owner. NOTE: Renouncing ownership will leave the contract without an owner, thereby removing any functionality that is only available to the owner."
      },
      "renounceRole(bytes32,address)": {
        "details": "Revokes `role` from the calling account. Roles are often managed via {grantRole} and {revokeRole}: this function's purpose is to provide a mechanism for accounts to lose their privileges if they are compromised (such as when a trusted device is misplaced). If the calling account had been revoked `role`, emits a {RoleRevoked} event. Requirements: - the caller must be `account`. May emit a {RoleRevoked} event."
      },
      "revokeRole(bytes32,address)": {
        "details": "Revokes `role` from `account`. If `account` had been granted `role`, emits a {RoleRevoked} event. Requirements: - the caller must have ``role``'s admin role. May emit a {RoleRevoked} event."
      },
      "supportsInterface(bytes4)": {
        "details": "See {IERC165-supportsInterface}."
      },
      "transferOwnership(address)": {
        "details": "Transfers ownership of the contract to a new account (`newOwner`). Can only be called by the current owner."
      }
    },
    "version": 1
  },
  "userdoc": {
    "kind": "user",
    "methods": {},
    "version": 1
  }
}