{
  "contractName": "Dispute",
  "abi": [
    {
      "inputs": [
        {
          "internalType": "address",
          "name": "_firstParty",
          "type": "address"
        },
        {
          "internalType": "address",
          "name": "_secondParty",
          "type": "address"
        }
      ],
      "stateMutability": "nonpayable",
      "type": "constructor"
    },
    {
      "anonymous": false,
      "inputs": [
        {
          "indexed": true,
          "internalType": "address",
          "name": "previousOwner",
          "type": "address"
        },
        {
          "indexed": true,
          "internalType": "address",
          "name": "newOwner",
          "type": "address"
        }
      ],
      "name": "OwnershipTransferred",
      "type": "event"
    },
    {
      "anonymous": false,
      "inputs": [
        {
          "indexed": true,
          "internalType": "bytes32",
          "name": "role",
          "type": "bytes32"
        },
        {
          "indexed": true,
          "internalType": "bytes32",
          "name": "previousAdminRole",
          "type": "bytes32"
        },
        {
          "indexed": true,
          "internalType": "bytes32",
          "name": "newAdminRole",
          "type": "bytes32"
        }
      ],
      "name": "RoleAdminChanged",
      "type": "event"
    },
    {
      "anonymous": false,
      "inputs": [
        {
          "indexed": true,
          "internalType": "bytes32",
          "name": "role",
          "type": "bytes32"
        },
        {
          "indexed": true,
          "internalType": "address",
          "name": "account",
          "type": "address"
        },
        {
          "indexed": true,
          "internalType": "address",
          "name": "sender",
          "type": "address"
        }
      ],
      "name": "RoleGranted",
      "type": "event"
    },
    {
      "anonymous": false,
      "inputs": [
        {
          "indexed": true,
          "internalType": "bytes32",
          "name": "role",
          "type": "bytes32"
        },
        {
          "indexed": true,
          "internalType": "address",
          "name": "account",
          "type": "address"
        },
        {
          "indexed": true,
          "internalType": "address",
          "name": "sender",
          "type": "address"
        }
      ],
      "name": "RoleRevoked",
      "type": "event"
    },
    {
      "inputs": [],
      "name": "DEFAULT_ADMIN_ROLE",
      "outputs": [
        {
          "internalType": "bytes32",
          "name": "",
          "type": "bytes32"
        }
      ],
      "stateMutability": "view",
      "type": "function",
      "constant": true
    },
    {
      "inputs": [],
      "name": "PARTY_ROLE",
      "outputs": [
        {
          "internalType": "bytes32",
          "name": "",
          "type": "bytes32"
        }
      ],
      "stateMutability": "view",
      "type": "function",
      "constant": true
    },
    {
      "inputs": [
        {
          "internalType": "bytes32",
          "name": "role",
          "type": "bytes32"
        }
      ],
      "name": "getRoleAdmin",
      "outputs": [
        {
          "internalType": "bytes32",
          "name": "",
          "type": "bytes32"
        }
      ],
      "stateMutability": "view",
      "type": "function",
      "constant": true
    },
    {
      "inputs": [
        {
          "internalType": "bytes32",
          "name": "role",
          "type": "bytes32"
        },
        {
          "internalType": "address",
          "name": "account",
          "type": "address"
        }
      ],
      "name": "grantRole",
      "outputs": [],
      "stateMutability": "nonpayable",
      "type": "function"
    },
    {
      "inputs": [
        {
          "internalType": "bytes32",
          "name": "role",
          "type": "bytes32"
        },
        {
          "internalType": "address",
          "name": "account",
          "type": "address"
        }
      ],
      "name": "hasRole",
      "outputs": [
        {
          "internalType": "bool",
          "name": "",
          "type": "bool"
        }
      ],
      "stateMutability": "view",
      "type": "function",
      "constant": true
    },
    {
      "inputs": [],
      "name": "owner",
      "outputs": [
        {
          "internalType": "address",
          "name": "",
          "type": "address"
        }
      ],
      "stateMutability": "view",
      "type": "function",
      "constant": true
    },
    {
      "inputs": [
        {
          "internalType": "uint256",
          "name": "",
          "type": "uint256"
        }
      ],
      "name": "parties",
      "outputs": [
        {
          "internalType": "address payable",
          "name": "add",
          "type": "address"
        },
        {
          "internalType": "uint256",
          "name": "evidenceSize",
          "type": "uint256"
        }
      ],
      "stateMutability": "view",
      "type": "function",
      "constant": true
    },
    {
      "inputs": [],
      "name": "renounceOwnership",
      "outputs": [],
      "stateMutability": "nonpayable",
      "type": "function"
    },
    {
      "inputs": [
        {
          "internalType": "bytes32",
          "name": "role",
          "type": "bytes32"
        },
        {
          "internalType": "address",
          "name": "account",
          "type": "address"
        }
      ],
      "name": "renounceRole",
      "outputs": [],
      "stateMutability": "nonpayable",
      "type": "function"
    },
    {
      "inputs": [
        {
          "internalType": "bytes32",
          "name": "role",
          "type": "bytes32"
        },
        {
          "internalType": "address",
          "name": "account",
          "type": "address"
        }
      ],
      "name": "revokeRole",
      "outputs": [],
      "stateMutability": "nonpayable",
      "type": "function"
    },
    {
      "inputs": [
        {
          "internalType": "bytes4",
          "name": "interfaceId",
          "type": "bytes4"
        }
      ],
      "name": "supportsInterface",
      "outputs": [
        {
          "internalType": "bool",
          "name": "",
          "type": "bool"
        }
      ],
      "stateMutability": "view",
      "type": "function",
      "constant": true
    },
    {
      "inputs": [
        {
          "internalType": "address",
          "name": "newOwner",
          "type": "address"
        }
      ],
      "name": "transferOwnership",
      "outputs": [],
      "stateMutability": "nonpayable",
      "type": "function"
    },
    {
      "inputs": [
        {
          "internalType": "address",
          "name": "operator",
          "type": "address"
        },
        {
          "internalType": "address",
          "name": "from",
          "type": "address"
        },
        {
          "internalType": "uint256",
          "name": "tokenId",
          "type": "uint256"
        },
        {
          "internalType": "bytes",
          "name": "data",
          "type": "bytes"
        }
      ],
      "name": "onERC721Received",
      "outputs": [
        {
          "internalType": "bytes4",
          "name": "",
          "type": "bytes4"
        }
      ],
      "stateMutability": "nonpayable",
      "type": "function"
    },
    {
      "inputs": [
        {
          "internalType": "uint256",
          "name": "party",
          "type": "uint256"
        },
        {
          "internalType": "uint256",
          "name": "evidenceIndex",
          "type": "uint256"
        }
      ],
      "name": "getEvidenceFrom",
      "outputs": [
        {
          "components": [
            {
              "internalType": "address",
              "name": "contractAddress",
              "type": "address"
            },
            {
              "internalType": "uint256",
              "name": "tokenId",
              "type": "uint256"
            }
          ],
          "internalType": "struct Dispute.Evidence",
          "name": "",
          "type": "tuple"
        }
      ],
      "stateMutability": "view",
      "type": "function",
      "constant": true
    },
    {
      "inputs": [
        {
          "internalType": "uint64",
          "name": "_amountFirstParty",
          "type": "uint64"
        },
        {
          "internalType": "uint64",
          "name": "_amountSecondParty",
          "type": "uint64"
        }
      ],
      "name": "solveDispute",
      "outputs": [],
      "stateMutability": "nonpayable",
      "type": "function"
    }
  ],
  "bytecode": "0x60806040523480156200001157600080fd5b506040516200239738038062002397833981810160405281019062000037919062000498565b620000576200004b620000e560201b60201c565b620000ed60201b60201c565b620000897fb922200089753d631c36b6eac46c115660e057765c8df5c796796636265fc46983620001b160201b60201c565b620000bb7fb922200089753d631c36b6eac46c115660e057765c8df5c796796636265fc46982620001b160201b60201c565b620000cc82620001c760201b60201c565b620000dd81620001c760201b60201c565b5050620004df565b600033905090565b60008060009054906101000a900473ffffffffffffffffffffffffffffffffffffffff169050816000806101000a81548173ffffffffffffffffffffffffffffffffffffffff021916908373ffffffffffffffffffffffffffffffffffffffff1602179055508173ffffffffffffffffffffffffffffffffffffffff168173ffffffffffffffffffffffffffffffffffffffff167f8be0079c531659141344cd1fd0a4f28419497f9722a3daafe3b4186f6b6457e060405160405180910390a35050565b620001c38282620002d260201b60201c565b5050565b600060026001816001815401808255809150500390600052602060002090600302019050818160000160006101000a81548173ffffffffffffffffffffffffffffffffffffffff021916908373ffffffffffffffffffffffffffffffffffffffff160217905550600081600201819055506040518060400160405280600073ffffffffffffffffffffffffffffffffffffffff168152602001600181525081600101600080815260200190815260200160002060008201518160000160006101000a81548173ffffffffffffffffffffffffffffffffffffffff021916908373ffffffffffffffffffffffffffffffffffffffff160217905550602082015181600101559050505050565b620002e48282620003c360201b60201c565b620003bf57600180600084815260200190815260200160002060000160008373ffffffffffffffffffffffffffffffffffffffff1673ffffffffffffffffffffffffffffffffffffffff16815260200190815260200160002060006101000a81548160ff02191690831515021790555062000364620000e560201b60201c565b73ffffffffffffffffffffffffffffffffffffffff168173ffffffffffffffffffffffffffffffffffffffff16837f2f8788117e7eff1d82e926ec794901d17c78024a50270940304540a733656f0d60405160405180910390a45b5050565b60006001600084815260200190815260200160002060000160008373ffffffffffffffffffffffffffffffffffffffff1673ffffffffffffffffffffffffffffffffffffffff16815260200190815260200160002060009054906101000a900460ff16905092915050565b600080fd5b600073ffffffffffffffffffffffffffffffffffffffff82169050919050565b6000620004608262000433565b9050919050565b620004728162000453565b81146200047e57600080fd5b50565b600081519050620004928162000467565b92915050565b60008060408385031215620004b257620004b16200042e565b5b6000620004c28582860162000481565b9250506020620004d58582860162000481565b9150509250929050565b611ea880620004ef6000396000f3fe608060405234801561001057600080fd5b50600436106100f55760003560e01c8063523bdb521161009757806391d148541161006657806391d1485414610285578063a217fddf146102b5578063d547741f146102d3578063f2fde38b146102ef576100f5565b8063523bdb52146101fc57806370651a181461022c578063715018a61461025d5780638da5cb5b14610267576100f5565b8063248a9ca3116100d3578063248a9ca3146101765780632f2ff15d146101a657806330104c3e146101c257806336568abe146101e0576100f5565b806301ffc9a7146100fa578063062c4de91461012a578063150b7a0214610146575b600080fd5b610114600480360381019061010f919061122b565b61030b565b6040516101219190611273565b60405180910390f35b610144600480360381019061013f91906112ce565b610385565b005b610160600480360381019061015b9190611407565b61039b565b60405161016d919061149e565b60405180910390f35b610190600480360381019061018b91906114ef565b610664565b60405161019d919061152b565b60405180910390f35b6101c060048036038101906101bb9190611546565b610684565b005b6101ca6106a5565b6040516101d7919061152b565b60405180910390f35b6101fa60048036038101906101f59190611546565b6106c9565b005b61021660048036038101906102119190611586565b61074c565b6040516102239190611613565b60405180910390f35b6102466004803603810190610241919061162e565b6107fd565b60405161025492919061168b565b60405180910390f35b610265610851565b005b61026f610865565b60405161027c91906116c3565b60405180910390f35b61029f600480360381019061029a9190611546565b61088e565b6040516102ac9190611273565b60405180910390f35b6102bd6108f9565b6040516102ca919061152b565b60405180910390f35b6102ed60048036038101906102e89190611546565b610900565b005b610309600480360381019061030491906116de565b610921565b005b60007f7965db0b000000000000000000000000000000000000000000000000000000007bffffffffffffffffffffffffffffffffffffffffffffffffffffffff1916827bffffffffffffffffffffffffffffffffffffffffffffffffffffffff1916148061037e575061037d826109a4565b5b9050919050565b61038d610a0e565b6103978282610a8c565b5050565b60006103c77fb922200089753d631c36b6eac46c115660e057765c8df5c796796636265fc4698661088e565b610406576040517f08c379a00000000000000000000000000000000000000000000000000000000081526004016103fd9061178e565b60405180910390fd5b6000600260008154811061041d5761041c6117ae565b5b906000526020600020906003020160000160009054906101000a900473ffffffffffffffffffffffffffffffffffffffff1673ffffffffffffffffffffffffffffffffffffffff168673ffffffffffffffffffffffffffffffffffffffff16036104ab576002600081548110610496576104956117ae565b5b9060005260206000209060030201905061059d565b60026001815481106104c0576104bf6117ae565b5b906000526020600020906003020160000160009054906101000a900473ffffffffffffffffffffffffffffffffffffffff1673ffffffffffffffffffffffffffffffffffffffff168673ffffffffffffffffffffffffffffffffffffffff160361054e576002600081548110610539576105386117ae565b5b9060005260206000209060030201905061059c565b600061058f576040517f08c379a00000000000000000000000000000000000000000000000000000000081526004016105869061184f565b60405180910390fd5b600060e01b91505061065b565b5b60405180604001604052808873ffffffffffffffffffffffffffffffffffffffff168152602001868152508160010160008360020154815260200190815260200160002060008201518160000160006101000a81548173ffffffffffffffffffffffffffffffffffffffff021916908373ffffffffffffffffffffffffffffffffffffffff1602179055506020820151816001015590505080600201600081548092919061064a9061189e565b919050555063150b7a0260e01b9150505b95945050505050565b600060016000838152602001908152602001600020600101549050919050565b61068d82610664565b61069681610c1e565b6106a08383610c32565b505050565b7fb922200089753d631c36b6eac46c115660e057765c8df5c796796636265fc46981565b6106d1610d12565b73ffffffffffffffffffffffffffffffffffffffff168173ffffffffffffffffffffffffffffffffffffffff161461073e576040517f08c379a000000000000000000000000000000000000000000000000000000000815260040161073590611958565b60405180910390fd5b6107488282610d1a565b5050565b610754611199565b60028381548110610768576107676117ae565b5b906000526020600020906003020160010160008381526020019081526020016000206040518060400160405290816000820160009054906101000a900473ffffffffffffffffffffffffffffffffffffffff1673ffffffffffffffffffffffffffffffffffffffff1673ffffffffffffffffffffffffffffffffffffffff168152602001600182015481525050905092915050565b6002818154811061080d57600080fd5b90600052602060002090600302016000915090508060000160009054906101000a900473ffffffffffffffffffffffffffffffffffffffff16908060020154905082565b610859610a0e565b6108636000610dfc565b565b60008060009054906101000a900473ffffffffffffffffffffffffffffffffffffffff16905090565b60006001600084815260200190815260200160002060000160008373ffffffffffffffffffffffffffffffffffffffff1673ffffffffffffffffffffffffffffffffffffffff16815260200190815260200160002060009054906101000a900460ff16905092915050565b6000801b81565b61090982610664565b61091281610c1e565b61091c8383610d1a565b505050565b610929610a0e565b600073ffffffffffffffffffffffffffffffffffffffff168173ffffffffffffffffffffffffffffffffffffffff1603610998576040517f08c379a000000000000000000000000000000000000000000000000000000000815260040161098f906119ea565b60405180910390fd5b6109a181610dfc565b50565b60007f01ffc9a7000000000000000000000000000000000000000000000000000000007bffffffffffffffffffffffffffffffffffffffffffffffffffffffff1916827bffffffffffffffffffffffffffffffffffffffffffffffffffffffff1916149050919050565b610a16610d12565b73ffffffffffffffffffffffffffffffffffffffff16610a34610865565b73ffffffffffffffffffffffffffffffffffffffff1614610a8a576040517f08c379a0000000000000000000000000000000000000000000000000000000008152600401610a8190611a56565b60405180910390fd5b565b610a94610a0e565b8082610aa09190611a76565b67ffffffffffffffff16471015610aec576040517f08c379a0000000000000000000000000000000000000000000000000000000008152600401610ae390611b26565b60405180910390fd5b6002600081548110610b0157610b006117ae565b5b906000526020600020906003020160000160009054906101000a900473ffffffffffffffffffffffffffffffffffffffff1673ffffffffffffffffffffffffffffffffffffffff166108fc8367ffffffffffffffff169081150290604051600060405180830381858888f19350505050158015610b82573d6000803e3d6000fd5b506002600181548110610b9857610b976117ae565b5b906000526020600020906003020160000160009054906101000a900473ffffffffffffffffffffffffffffffffffffffff1673ffffffffffffffffffffffffffffffffffffffff166108fc8267ffffffffffffffff169081150290604051600060405180830381858888f19350505050158015610c19573d6000803e3d6000fd5b505050565b610c2f81610c2a610d12565b610ec0565b50565b610c3c828261088e565b610d0e57600180600084815260200190815260200160002060000160008373ffffffffffffffffffffffffffffffffffffffff1673ffffffffffffffffffffffffffffffffffffffff16815260200190815260200160002060006101000a81548160ff021916908315150217905550610cb3610d12565b73ffffffffffffffffffffffffffffffffffffffff168173ffffffffffffffffffffffffffffffffffffffff16837f2f8788117e7eff1d82e926ec794901d17c78024a50270940304540a733656f0d60405160405180910390a45b5050565b600033905090565b610d24828261088e565b15610df85760006001600084815260200190815260200160002060000160008373ffffffffffffffffffffffffffffffffffffffff1673ffffffffffffffffffffffffffffffffffffffff16815260200190815260200160002060006101000a81548160ff021916908315150217905550610d9d610d12565b73ffffffffffffffffffffffffffffffffffffffff168173ffffffffffffffffffffffffffffffffffffffff16837ff6391f5c32d9c69d2a47ea670b442974b53935d1edc7fd64eb21e047a839171b60405160405180910390a45b5050565b60008060009054906101000a900473ffffffffffffffffffffffffffffffffffffffff169050816000806101000a81548173ffffffffffffffffffffffffffffffffffffffff021916908373ffffffffffffffffffffffffffffffffffffffff1602179055508173ffffffffffffffffffffffffffffffffffffffff168173ffffffffffffffffffffffffffffffffffffffff167f8be0079c531659141344cd1fd0a4f28419497f9722a3daafe3b4186f6b6457e060405160405180910390a35050565b610eca828261088e565b610f5957610eef8173ffffffffffffffffffffffffffffffffffffffff166014610f5d565b610efd8360001c6020610f5d565b604051602001610f0e929190611c58565b6040516020818303038152906040526040517f08c379a0000000000000000000000000000000000000000000000000000000008152600401610f509190611cdc565b60405180910390fd5b5050565b606060006002836002610f709190611cfe565b610f7a9190611d58565b67ffffffffffffffff811115610f9357610f92611dae565b5b6040519080825280601f01601f191660200182016040528015610fc55781602001600182028036833780820191505090505b5090507f300000000000000000000000000000000000000000000000000000000000000081600081518110610ffd57610ffc6117ae565b5b60200101907effffffffffffffffffffffffffffffffffffffffffffffffffffffffffffff1916908160001a9053507f780000000000000000000000000000000000000000000000000000000000000081600181518110611061576110606117ae565b5b60200101907effffffffffffffffffffffffffffffffffffffffffffffffffffffffffffff1916908160001a905350600060018460026110a19190611cfe565b6110ab9190611d58565b90505b600181111561114b577f3031323334353637383961626364656600000000000000000000000000000000600f8616601081106110ed576110ec6117ae565b5b1a60f81b828281518110611104576111036117ae565b5b60200101907effffffffffffffffffffffffffffffffffffffffffffffffffffffffffffff1916908160001a905350600485901c94508061114490611ddd565b90506110ae565b506000841461118f576040517f08c379a000000000000000000000000000000000000000000000000000000000815260040161118690611e52565b60405180910390fd5b8091505092915050565b6040518060400160405280600073ffffffffffffffffffffffffffffffffffffffff168152602001600081525090565b600080fd5b600080fd5b60007fffffffff0000000000000000000000000000000000000000000000000000000082169050919050565b611208816111d3565b811461121357600080fd5b50565b600081359050611225816111ff565b92915050565b600060208284031215611241576112406111c9565b5b600061124f84828501611216565b91505092915050565b60008115159050919050565b61126d81611258565b82525050565b60006020820190506112886000830184611264565b92915050565b600067ffffffffffffffff82169050919050565b6112ab8161128e565b81146112b657600080fd5b50565b6000813590506112c8816112a2565b92915050565b600080604083850312156112e5576112e46111c9565b5b60006112f3858286016112b9565b9250506020611304858286016112b9565b9150509250929050565b600073ffffffffffffffffffffffffffffffffffffffff82169050919050565b60006113398261130e565b9050919050565b6113498161132e565b811461135457600080fd5b50565b60008135905061136681611340565b92915050565b6000819050919050565b61137f8161136c565b811461138a57600080fd5b50565b60008135905061139c81611376565b92915050565b600080fd5b600080fd5b600080fd5b60008083601f8401126113c7576113c66113a2565b5b8235905067ffffffffffffffff8111156113e4576113e36113a7565b5b602083019150836001820283011115611400576113ff6113ac565b5b9250929050565b600080600080600060808688031215611423576114226111c9565b5b600061143188828901611357565b955050602061144288828901611357565b94505060406114538882890161138d565b935050606086013567ffffffffffffffff811115611474576114736111ce565b5b611480888289016113b1565b92509250509295509295909350565b611498816111d3565b82525050565b60006020820190506114b3600083018461148f565b92915050565b6000819050919050565b6114cc816114b9565b81146114d757600080fd5b50565b6000813590506114e9816114c3565b92915050565b600060208284031215611505576115046111c9565b5b6000611513848285016114da565b91505092915050565b611525816114b9565b82525050565b6000602082019050611540600083018461151c565b92915050565b6000806040838503121561155d5761155c6111c9565b5b600061156b858286016114da565b925050602061157c85828601611357565b9150509250929050565b6000806040838503121561159d5761159c6111c9565b5b60006115ab8582860161138d565b92505060206115bc8582860161138d565b9150509250929050565b6115cf8161132e565b82525050565b6115de8161136c565b82525050565b6040820160008201516115fa60008501826115c6565b50602082015161160d60208501826115d5565b50505050565b600060408201905061162860008301846115e4565b92915050565b600060208284031215611644576116436111c9565b5b60006116528482850161138d565b91505092915050565b60006116668261130e565b9050919050565b6116768161165b565b82525050565b6116858161136c565b82525050565b60006040820190506116a0600083018561166d565b6116ad602083018461167c565b9392505050565b6116bd8161132e565b82525050565b60006020820190506116d860008301846116b4565b92915050565b6000602082840312156116f4576116f36111c9565b5b600061170284828501611357565b91505092915050565b600082825260208201905092915050565b7f43616c6c6572206973206e6f74206120706172747920696e766f6c766564206960008201527f6e20746865206469737075746500000000000000000000000000000000000000602082015250565b6000611778602d8361170b565b91506117838261171c565b604082019050919050565b600060208201905081810360008301526117a78161176b565b9050919050565b7f4e487b7100000000000000000000000000000000000000000000000000000000600052603260045260246000fd5b7f4578706563746564202766726f6d2720746f206265207468652061646472657360008201527f73206f6620746865206669727374206f72207365636f6e642070617274790000602082015250565b6000611839603e8361170b565b9150611844826117dd565b604082019050919050565b600060208201905081810360008301526118688161182c565b9050919050565b7f4e487b7100000000000000000000000000000000000000000000000000000000600052601160045260246000fd5b60006118a98261136c565b91507fffffffffffffffffffffffffffffffffffffffffffffffffffffffffffffffff82036118db576118da61186f565b5b600182019050919050565b7f416363657373436f6e74726f6c3a2063616e206f6e6c792072656e6f756e636560008201527f20726f6c657320666f722073656c660000000000000000000000000000000000602082015250565b6000611942602f8361170b565b915061194d826118e6565b604082019050919050565b6000602082019050818103600083015261197181611935565b9050919050565b7f4f776e61626c653a206e6577206f776e657220697320746865207a65726f206160008201527f6464726573730000000000000000000000000000000000000000000000000000602082015250565b60006119d460268361170b565b91506119df82611978565b604082019050919050565b60006020820190508181036000830152611a03816119c7565b9050919050565b7f4f776e61626c653a2063616c6c6572206973206e6f7420746865206f776e6572600082015250565b6000611a4060208361170b565b9150611a4b82611a0a565b602082019050919050565b60006020820190508181036000830152611a6f81611a33565b9050919050565b6000611a818261128e565b9150611a8c8361128e565b92508267ffffffffffffffff03821115611aa957611aa861186f565b5b828201905092915050565b7f496e73756666696369656e742062616c616e636520746f20706572666f726d2060008201527f746865206f7065726174696f6e00000000000000000000000000000000000000602082015250565b6000611b10602d8361170b565b9150611b1b82611ab4565b604082019050919050565b60006020820190508181036000830152611b3f81611b03565b9050919050565b600081905092915050565b7f416363657373436f6e74726f6c3a206163636f756e7420000000000000000000600082015250565b6000611b87601783611b46565b9150611b9282611b51565b601782019050919050565b600081519050919050565b60005b83811015611bc6578082015181840152602081019050611bab565b83811115611bd5576000848401525b50505050565b6000611be682611b9d565b611bf08185611b46565b9350611c00818560208601611ba8565b80840191505092915050565b7f206973206d697373696e6720726f6c6520000000000000000000000000000000600082015250565b6000611c42601183611b46565b9150611c4d82611c0c565b601182019050919050565b6000611c6382611b7a565b9150611c6f8285611bdb565b9150611c7a82611c35565b9150611c868284611bdb565b91508190509392505050565b6000601f19601f8301169050919050565b6000611cae82611b9d565b611cb8818561170b565b9350611cc8818560208601611ba8565b611cd181611c92565b840191505092915050565b60006020820190508181036000830152611cf68184611ca3565b905092915050565b6000611d098261136c565b9150611d148361136c565b9250817fffffffffffffffffffffffffffffffffffffffffffffffffffffffffffffffff0483118215151615611d4d57611d4c61186f565b5b828202905092915050565b6000611d638261136c565b9150611d6e8361136c565b9250827fffffffffffffffffffffffffffffffffffffffffffffffffffffffffffffffff03821115611da357611da261186f565b5b828201905092915050565b7f4e487b7100000000000000000000000000000000000000000000000000000000600052604160045260246000fd5b6000611de88261136c565b915060008203611dfb57611dfa61186f565b5b600182039050919050565b7f537472696e67733a20686578206c656e67746820696e73756666696369656e74600082015250565b6000611e3c60208361170b565b9150611e4782611e06565b602082019050919050565b60006020820190508181036000830152611e6b81611e2f565b905091905056fea264697066735822122024e26c9c399d561c6a59bba29e9ed3c25e217842ad08c31ce1efe66760bdd8fb64736f6c634300080f0033",
  "immutableReferences": {},
  "source": "//SPDX-License-Identifier: UNLICENSED\n\npragma solidity ^0.8.0;\n\nimport \"@openzeppelin/contracts/access/Ownable.sol\";\nimport \"@openzeppelin/contracts/access/AccessControl.sol\";\nimport \"@openzeppelin/contracts/token/ERC721/IERC721Receiver.sol\";\n\ncontract Dispute is Ownable, AccessControl, IERC721Receiver{ \n\n    bytes32 public constant PARTY_ROLE = keccak256(\"PARTY_ROLE\");\n\n    struct Evidence {\n        address contractAddress;\n        uint256 tokenId;\n    }\n\n    struct Party {\n        address payable add;\n        mapping(uint => Evidence) evidence;\n        uint evidenceSize;\n    }\n\n    //TODO, esto debera ser pblico?\n    Party[] public parties;\n\n\n    modifier assertTwoParties(){\n        assert(parties.length == 2);\n        _;\n    }\n\n    constructor(address _firstParty, address _secondParty){\n        _setupRole(PARTY_ROLE, _firstParty);\n        _setupRole(PARTY_ROLE, _secondParty);\n        \n        _createNewParty(_firstParty);\n        _createNewParty(_secondParty);\n    }\n\n    function _createNewParty(address _add) private{\n        Party storage p = parties.push();\n        p.add = payable(_add);\n        p.evidenceSize = 0;\n        p.evidence[0] = Evidence(0x0000000000000000000000000000000000000000, 1);\n    }\n\n\n    /*\n    Recibir un token ERC721 de evidencia y agregarlo a ndice de evidencia provista por el party que lo llam.\n    */\n    function onERC721Received(address operator, address from, uint256 tokenId, bytes calldata data) public returns(bytes4) {\n\n        //TODO Slo debe permitir recibir el token si fue minteado por el mismo address que lo enva.\n        require(hasRole(PARTY_ROLE, from), \"Caller is not a party involved in the dispute\");\n        \n        //TODO, est bien que esto sea Memory?\n        Party storage party;\n        if(from == parties[0].add){\n            party = parties[0];\n        } else if(from == parties[1].add){\n            party = parties[0];\n        } else {\n            require(false, \"Expected 'from' to be the address of the first or second party\");\n            return bytes4(0x0);\n        }\n        \n        party.evidence[party.evidenceSize] = Evidence(operator, tokenId);\n        party.evidenceSize++;\n\n        return this.onERC721Received.selector;\n    }\n\n    function getEvidenceFrom(uint party, uint evidenceIndex) public view returns(Evidence memory){\n        return parties[party].evidence[evidenceIndex];\n    }\n\n    function solveDispute(uint64 _amountFirstParty, uint64 _amountSecondParty) public onlyOwner {\n\n        //TODO, slo se debera resovler la disputa si las dos partes han puesto dinero en el contrato.\n\n        disperseMoney(_amountFirstParty, _amountSecondParty);\n    }\n\n    function disperseMoney(uint64 _amountFirstParty, uint64 _amountSecondParty) private onlyOwner {\n        //1. Debe recibir addresses y cantidad de dinero a enviar a cada address.\n        \n        //2. Debe verificar si balance que tiene es suficiente para realizar los pagos.\n\n        //TODO, qu pasa si amountFirstParty + amountSecondParty > max uint64?\n        require(address(this).balance >= _amountFirstParty + _amountSecondParty, \"Insufficient balance to perform the operation\");\n\n        //3. Debe realizar los pagos.\n        parties[0].add.transfer(_amountFirstParty);\n        parties[1].add.transfer(_amountSecondParty);\n    }\n\n}",
  "sourcePath": "/home/felipe/Documents/Proyectos_Personales/Web3Dispute/contracts/dispute/Dispute.sol",
  "compiler": {
    "name": "solc",
    "version": "0.8.15+commit.e14f2714.Emscripten.clang"
  },
  "schemaVersion": "3.4.8",
  "updatedAt": "2022-08-05T03:20:50.933Z",
  "networkType": "ethereum",
  "devdoc": {
    "kind": "dev",
    "methods": {
      "getRoleAdmin(bytes32)": {
        "details": "Returns the admin role that controls `role`. See {grantRole} and {revokeRole}. To change a role's admin, use {_setRoleAdmin}."
      },
      "grantRole(bytes32,address)": {
        "details": "Grants `role` to `account`. If `account` had not been already granted `role`, emits a {RoleGranted} event. Requirements: - the caller must have ``role``'s admin role. May emit a {RoleGranted} event."
      },
      "hasRole(bytes32,address)": {
        "details": "Returns `true` if `account` has been granted `role`."
      },
      "onERC721Received(address,address,uint256,bytes)": {
        "details": "Whenever an {IERC721} `tokenId` token is transferred to this contract via {IERC721-safeTransferFrom} by `operator` from `from`, this function is called. It must return its Solidity selector to confirm the token transfer. If any other value is returned or the interface is not implemented by the recipient, the transfer will be reverted. The selector can be obtained in Solidity with `IERC721Receiver.onERC721Received.selector`."
      },
      "owner()": {
        "details": "Returns the address of the current owner."
      },
      "renounceOwnership()": {
        "details": "Leaves the contract without owner. It will not be possible to call `onlyOwner` functions anymore. Can only be called by the current owner. NOTE: Renouncing ownership will leave the contract without an owner, thereby removing any functionality that is only available to the owner."
      },
      "renounceRole(bytes32,address)": {
        "details": "Revokes `role` from the calling account. Roles are often managed via {grantRole} and {revokeRole}: this function's purpose is to provide a mechanism for accounts to lose their privileges if they are compromised (such as when a trusted device is misplaced). If the calling account had been revoked `role`, emits a {RoleRevoked} event. Requirements: - the caller must be `account`. May emit a {RoleRevoked} event."
      },
      "revokeRole(bytes32,address)": {
        "details": "Revokes `role` from `account`. If `account` had been granted `role`, emits a {RoleRevoked} event. Requirements: - the caller must have ``role``'s admin role. May emit a {RoleRevoked} event."
      },
      "supportsInterface(bytes4)": {
        "details": "See {IERC165-supportsInterface}."
      },
      "transferOwnership(address)": {
        "details": "Transfers ownership of the contract to a new account (`newOwner`). Can only be called by the current owner."
      }
    },
    "version": 1
  },
  "userdoc": {
    "kind": "user",
    "methods": {},
    "version": 1
  }
}