{
  "contractName": "Dispute",
  "abi": [
    {
      "inputs": [
        {
          "internalType": "address",
          "name": "_firstParty",
          "type": "address"
        },
        {
          "internalType": "address",
          "name": "_secondParty",
          "type": "address"
        }
      ],
      "stateMutability": "nonpayable",
      "type": "constructor"
    },
    {
      "anonymous": false,
      "inputs": [
        {
          "indexed": true,
          "internalType": "address",
          "name": "previousOwner",
          "type": "address"
        },
        {
          "indexed": true,
          "internalType": "address",
          "name": "newOwner",
          "type": "address"
        }
      ],
      "name": "OwnershipTransferred",
      "type": "event"
    },
    {
      "anonymous": false,
      "inputs": [
        {
          "indexed": true,
          "internalType": "bytes32",
          "name": "role",
          "type": "bytes32"
        },
        {
          "indexed": true,
          "internalType": "bytes32",
          "name": "previousAdminRole",
          "type": "bytes32"
        },
        {
          "indexed": true,
          "internalType": "bytes32",
          "name": "newAdminRole",
          "type": "bytes32"
        }
      ],
      "name": "RoleAdminChanged",
      "type": "event"
    },
    {
      "anonymous": false,
      "inputs": [
        {
          "indexed": true,
          "internalType": "bytes32",
          "name": "role",
          "type": "bytes32"
        },
        {
          "indexed": true,
          "internalType": "address",
          "name": "account",
          "type": "address"
        },
        {
          "indexed": true,
          "internalType": "address",
          "name": "sender",
          "type": "address"
        }
      ],
      "name": "RoleGranted",
      "type": "event"
    },
    {
      "anonymous": false,
      "inputs": [
        {
          "indexed": true,
          "internalType": "bytes32",
          "name": "role",
          "type": "bytes32"
        },
        {
          "indexed": true,
          "internalType": "address",
          "name": "account",
          "type": "address"
        },
        {
          "indexed": true,
          "internalType": "address",
          "name": "sender",
          "type": "address"
        }
      ],
      "name": "RoleRevoked",
      "type": "event"
    },
    {
      "inputs": [],
      "name": "DEFAULT_ADMIN_ROLE",
      "outputs": [
        {
          "internalType": "bytes32",
          "name": "",
          "type": "bytes32"
        }
      ],
      "stateMutability": "view",
      "type": "function",
      "constant": true
    },
    {
      "inputs": [],
      "name": "PARTY_ROLE",
      "outputs": [
        {
          "internalType": "bytes32",
          "name": "",
          "type": "bytes32"
        }
      ],
      "stateMutability": "view",
      "type": "function",
      "constant": true
    },
    {
      "inputs": [
        {
          "internalType": "bytes32",
          "name": "role",
          "type": "bytes32"
        }
      ],
      "name": "getRoleAdmin",
      "outputs": [
        {
          "internalType": "bytes32",
          "name": "",
          "type": "bytes32"
        }
      ],
      "stateMutability": "view",
      "type": "function",
      "constant": true
    },
    {
      "inputs": [
        {
          "internalType": "bytes32",
          "name": "role",
          "type": "bytes32"
        },
        {
          "internalType": "address",
          "name": "account",
          "type": "address"
        }
      ],
      "name": "grantRole",
      "outputs": [],
      "stateMutability": "nonpayable",
      "type": "function"
    },
    {
      "inputs": [
        {
          "internalType": "bytes32",
          "name": "role",
          "type": "bytes32"
        },
        {
          "internalType": "address",
          "name": "account",
          "type": "address"
        }
      ],
      "name": "hasRole",
      "outputs": [
        {
          "internalType": "bool",
          "name": "",
          "type": "bool"
        }
      ],
      "stateMutability": "view",
      "type": "function",
      "constant": true
    },
    {
      "inputs": [],
      "name": "owner",
      "outputs": [
        {
          "internalType": "address",
          "name": "",
          "type": "address"
        }
      ],
      "stateMutability": "view",
      "type": "function",
      "constant": true
    },
    {
      "inputs": [
        {
          "internalType": "uint256",
          "name": "",
          "type": "uint256"
        }
      ],
      "name": "parties",
      "outputs": [
        {
          "internalType": "address payable",
          "name": "add",
          "type": "address"
        },
        {
          "internalType": "uint256",
          "name": "evidenceSize",
          "type": "uint256"
        }
      ],
      "stateMutability": "view",
      "type": "function",
      "constant": true
    },
    {
      "inputs": [],
      "name": "renounceOwnership",
      "outputs": [],
      "stateMutability": "nonpayable",
      "type": "function"
    },
    {
      "inputs": [
        {
          "internalType": "bytes32",
          "name": "role",
          "type": "bytes32"
        },
        {
          "internalType": "address",
          "name": "account",
          "type": "address"
        }
      ],
      "name": "renounceRole",
      "outputs": [],
      "stateMutability": "nonpayable",
      "type": "function"
    },
    {
      "inputs": [
        {
          "internalType": "bytes32",
          "name": "role",
          "type": "bytes32"
        },
        {
          "internalType": "address",
          "name": "account",
          "type": "address"
        }
      ],
      "name": "revokeRole",
      "outputs": [],
      "stateMutability": "nonpayable",
      "type": "function"
    },
    {
      "inputs": [
        {
          "internalType": "bytes4",
          "name": "interfaceId",
          "type": "bytes4"
        }
      ],
      "name": "supportsInterface",
      "outputs": [
        {
          "internalType": "bool",
          "name": "",
          "type": "bool"
        }
      ],
      "stateMutability": "view",
      "type": "function",
      "constant": true
    },
    {
      "inputs": [
        {
          "internalType": "address",
          "name": "newOwner",
          "type": "address"
        }
      ],
      "name": "transferOwnership",
      "outputs": [],
      "stateMutability": "nonpayable",
      "type": "function"
    },
    {
      "inputs": [
        {
          "internalType": "address",
          "name": "operator",
          "type": "address"
        },
        {
          "internalType": "address",
          "name": "from",
          "type": "address"
        },
        {
          "internalType": "uint256",
          "name": "tokenId",
          "type": "uint256"
        },
        {
          "internalType": "bytes",
          "name": "data",
          "type": "bytes"
        }
      ],
      "name": "onERC721Received",
      "outputs": [
        {
          "internalType": "bytes4",
          "name": "",
          "type": "bytes4"
        }
      ],
      "stateMutability": "nonpayable",
      "type": "function"
    },
    {
      "inputs": [],
      "name": "getCurrentState",
      "outputs": [
        {
          "internalType": "string",
          "name": "",
          "type": "string"
        }
      ],
      "stateMutability": "view",
      "type": "function",
      "constant": true
    },
    {
      "inputs": [
        {
          "internalType": "uint256",
          "name": "party",
          "type": "uint256"
        }
      ],
      "name": "getNumberOfElementsFromParty",
      "outputs": [
        {
          "internalType": "uint256",
          "name": "",
          "type": "uint256"
        }
      ],
      "stateMutability": "view",
      "type": "function",
      "constant": true
    },
    {
      "inputs": [
        {
          "internalType": "uint256",
          "name": "party",
          "type": "uint256"
        },
        {
          "internalType": "uint256",
          "name": "evidenceIndex",
          "type": "uint256"
        }
      ],
      "name": "getEvidenceFrom",
      "outputs": [
        {
          "components": [
            {
              "internalType": "address",
              "name": "contractAddress",
              "type": "address"
            },
            {
              "internalType": "uint256",
              "name": "tokenId",
              "type": "uint256"
            }
          ],
          "internalType": "struct Dispute.Evidence",
          "name": "",
          "type": "tuple"
        }
      ],
      "stateMutability": "view",
      "type": "function",
      "constant": true
    },
    {
      "inputs": [
        {
          "internalType": "uint64",
          "name": "_amountFirstParty",
          "type": "uint64"
        },
        {
          "internalType": "uint64",
          "name": "_amountSecondParty",
          "type": "uint64"
        }
      ],
      "name": "solveDispute",
      "outputs": [],
      "stateMutability": "nonpayable",
      "type": "function"
    }
  ],
  "bytecode": "0x60806040523480156200001157600080fd5b5060405162002d4c38038062002d4c8339818101604052810190620000379190620004df565b620000576200004b6200012c60201b60201c565b6200013460201b60201c565b620000897fb922200089753d631c36b6eac46c115660e057765c8df5c796796636265fc46983620001f860201b60201c565b620000bb7fb922200089753d631c36b6eac46c115660e057765c8df5c796796636265fc46982620001f860201b60201c565b620000cc826200020e60201b60201c565b620000dd816200020e60201b60201c565b6040518060400160405280600481526020017f4f50454e0000000000000000000000000000000000000000000000000000000081525060029081620001239190620007a0565b50505062000887565b600033905090565b60008060009054906101000a900473ffffffffffffffffffffffffffffffffffffffff169050816000806101000a81548173ffffffffffffffffffffffffffffffffffffffff021916908373ffffffffffffffffffffffffffffffffffffffff1602179055508173ffffffffffffffffffffffffffffffffffffffff168173ffffffffffffffffffffffffffffffffffffffff167f8be0079c531659141344cd1fd0a4f28419497f9722a3daafe3b4186f6b6457e060405160405180910390a35050565b6200020a82826200031960201b60201c565b5050565b600060036001816001815401808255809150500390600052602060002090600302019050818160000160006101000a81548173ffffffffffffffffffffffffffffffffffffffff021916908373ffffffffffffffffffffffffffffffffffffffff160217905550600081600201819055506040518060400160405280600073ffffffffffffffffffffffffffffffffffffffff168152602001600181525081600101600080815260200190815260200160002060008201518160000160006101000a81548173ffffffffffffffffffffffffffffffffffffffff021916908373ffffffffffffffffffffffffffffffffffffffff160217905550602082015181600101559050505050565b6200032b82826200040a60201b60201c565b6200040657600180600084815260200190815260200160002060000160008373ffffffffffffffffffffffffffffffffffffffff1673ffffffffffffffffffffffffffffffffffffffff16815260200190815260200160002060006101000a81548160ff021916908315150217905550620003ab6200012c60201b60201c565b73ffffffffffffffffffffffffffffffffffffffff168173ffffffffffffffffffffffffffffffffffffffff16837f2f8788117e7eff1d82e926ec794901d17c78024a50270940304540a733656f0d60405160405180910390a45b5050565b60006001600084815260200190815260200160002060000160008373ffffffffffffffffffffffffffffffffffffffff1673ffffffffffffffffffffffffffffffffffffffff16815260200190815260200160002060009054906101000a900460ff16905092915050565b600080fd5b600073ffffffffffffffffffffffffffffffffffffffff82169050919050565b6000620004a7826200047a565b9050919050565b620004b9816200049a565b8114620004c557600080fd5b50565b600081519050620004d981620004ae565b92915050565b60008060408385031215620004f957620004f862000475565b5b60006200050985828601620004c8565b92505060206200051c85828601620004c8565b9150509250929050565b600081519050919050565b7f4e487b7100000000000000000000000000000000000000000000000000000000600052604160045260246000fd5b7f4e487b7100000000000000000000000000000000000000000000000000000000600052602260045260246000fd5b60006002820490506001821680620005a857607f821691505b602082108103620005be57620005bd62000560565b5b50919050565b60008190508160005260206000209050919050565b60006020601f8301049050919050565b600082821b905092915050565b600060088302620006287fffffffffffffffffffffffffffffffffffffffffffffffffffffffffffffffff82620005e9565b620006348683620005e9565b95508019841693508086168417925050509392505050565b6000819050919050565b6000819050919050565b6000620006816200067b62000675846200064c565b62000656565b6200064c565b9050919050565b6000819050919050565b6200069d8362000660565b620006b5620006ac8262000688565b848454620005f6565b825550505050565b600090565b620006cc620006bd565b620006d981848462000692565b505050565b5b818110156200070157620006f5600082620006c2565b600181019050620006df565b5050565b601f82111562000750576200071a81620005c4565b6200072584620005d9565b8101602085101562000735578190505b6200074d6200074485620005d9565b830182620006de565b50505b505050565b600082821c905092915050565b6000620007756000198460080262000755565b1980831691505092915050565b600062000790838362000762565b9150826002028217905092915050565b620007ab8262000526565b67ffffffffffffffff811115620007c757620007c662000531565b5b620007d382546200058f565b620007e082828562000705565b600060209050601f83116001811462000818576000841562000803578287015190505b6200080f858262000782565b8655506200087f565b601f1984166200082886620005c4565b60005b8281101562000852578489015182556001820191506020850194506020810190506200082b565b868310156200087257848901516200086e601f89168262000762565b8355505b6001600288020188555050505b505050505050565b6124b580620008976000396000f3fe608060405234801561001057600080fd5b506004361061010b5760003560e01c8063378aa701116100a25780638da5cb5b116100715780638da5cb5b146102cb57806391d14854146102e9578063a217fddf14610319578063d547741f14610337578063f2fde38b146103535761010b565b8063378aa70114610242578063523bdb521461026057806370651a1814610290578063715018a6146102c15761010b565b8063248a9ca3116100de578063248a9ca3146101bc5780632f2ff15d146101ec57806330104c3e1461020857806336568abe146102265761010b565b806301ffc9a714610110578063062c4de914610140578063150b7a021461015c5780632194e0071461018c575b600080fd5b61012a60048036038101906101259190611467565b61036f565b60405161013791906114af565b60405180910390f35b61015a6004803603810190610155919061150a565b6103e9565b005b61017660048036038101906101719190611643565b610444565b60405161018391906116da565b60405180910390f35b6101a660048036038101906101a191906116f5565b6107df565b6040516101b39190611731565b60405180910390f35b6101d660048036038101906101d19190611782565b61080e565b6040516101e391906117be565b60405180910390f35b610206600480360381019061020191906117d9565b61082e565b005b61021061084f565b60405161021d91906117be565b60405180910390f35b610240600480360381019061023b91906117d9565b610873565b005b61024a6108f6565b60405161025791906118b2565b60405180910390f35b61027a600480360381019061027591906118d4565b610988565b6040516102879190611961565b60405180910390f35b6102aa60048036038101906102a591906116f5565b610a39565b6040516102b892919061199d565b60405180910390f35b6102c9610a8d565b005b6102d3610aa1565b6040516102e091906119d5565b60405180910390f35b61030360048036038101906102fe91906117d9565b610aca565b60405161031091906114af565b60405180910390f35b610321610b35565b60405161032e91906117be565b60405180910390f35b610351600480360381019061034c91906117d9565b610b3c565b005b61036d600480360381019061036891906119f0565b610b5d565b005b60007f7965db0b000000000000000000000000000000000000000000000000000000007bffffffffffffffffffffffffffffffffffffffffffffffffffffffff1916827bffffffffffffffffffffffffffffffffffffffffffffffffffffffff191614806103e257506103e182610be0565b5b9050919050565b6103f1610c4a565b6103fb8282610cc8565b6040518060400160405280600681526020017f434c4f53454400000000000000000000000000000000000000000000000000008152506002908161043f9190611c58565b505050565b60006104707fb922200089753d631c36b6eac46c115660e057765c8df5c796796636265fc46986610aca565b6104af576040517f08c379a00000000000000000000000000000000000000000000000000000000081526004016104a690611d9c565b60405180910390fd5b600060036000815481106104c6576104c5611dbc565b5b906000526020600020906003020160000160009054906101000a900473ffffffffffffffffffffffffffffffffffffffff1673ffffffffffffffffffffffffffffffffffffffff168673ffffffffffffffffffffffffffffffffffffffff16036105bd57600360008154811061053f5761053e611dbc565b5b906000526020600020906003020190506105797fb922200089753d631c36b6eac46c115660e057765c8df5c796796636265fc46987610aca565b6105b8576040517f08c379a00000000000000000000000000000000000000000000000000000000081526004016105af90611e37565b60405180910390fd5b610718565b60036001815481106105d2576105d1611dbc565b5b906000526020600020906003020160000160009054906101000a900473ffffffffffffffffffffffffffffffffffffffff1673ffffffffffffffffffffffffffffffffffffffff168673ffffffffffffffffffffffffffffffffffffffff16036106c957600360018154811061064b5761064a611dbc565b5b906000526020600020906003020190506106857fb922200089753d631c36b6eac46c115660e057765c8df5c796796636265fc46987610aca565b6106c4576040517f08c379a00000000000000000000000000000000000000000000000000000000081526004016106bb90611ea3565b60405180910390fd5b610717565b600061070a576040517f08c379a000000000000000000000000000000000000000000000000000000000815260040161070190611f35565b60405180910390fd5b600060e01b9150506107d6565b5b60405180604001604052808873ffffffffffffffffffffffffffffffffffffffff168152602001868152508160010160008360020154815260200190815260200160002060008201518160000160006101000a81548173ffffffffffffffffffffffffffffffffffffffff021916908373ffffffffffffffffffffffffffffffffffffffff160217905550602082015181600101559050508060020160008154809291906107c590611f84565b919050555063150b7a0260e01b9150505b95945050505050565b6000600382815481106107f5576107f4611dbc565b5b9060005260206000209060030201600201549050919050565b600060016000838152602001908152602001600020600101549050919050565b6108378261080e565b61084081610e5a565b61084a8383610e6e565b505050565b7fb922200089753d631c36b6eac46c115660e057765c8df5c796796636265fc46981565b61087b610f4e565b73ffffffffffffffffffffffffffffffffffffffff168173ffffffffffffffffffffffffffffffffffffffff16146108e8576040517f08c379a00000000000000000000000000000000000000000000000000000000081526004016108df9061203e565b60405180910390fd5b6108f28282610f56565b5050565b60606002805461090590611a7b565b80601f016020809104026020016040519081016040528092919081815260200182805461093190611a7b565b801561097e5780601f106109535761010080835404028352916020019161097e565b820191906000526020600020905b81548152906001019060200180831161096157829003601f168201915b5050505050905090565b6109906113d5565b600383815481106109a4576109a3611dbc565b5b906000526020600020906003020160010160008381526020019081526020016000206040518060400160405290816000820160009054906101000a900473ffffffffffffffffffffffffffffffffffffffff1673ffffffffffffffffffffffffffffffffffffffff1673ffffffffffffffffffffffffffffffffffffffff168152602001600182015481525050905092915050565b60038181548110610a4957600080fd5b90600052602060002090600302016000915090508060000160009054906101000a900473ffffffffffffffffffffffffffffffffffffffff16908060020154905082565b610a95610c4a565b610a9f6000611038565b565b60008060009054906101000a900473ffffffffffffffffffffffffffffffffffffffff16905090565b60006001600084815260200190815260200160002060000160008373ffffffffffffffffffffffffffffffffffffffff1673ffffffffffffffffffffffffffffffffffffffff16815260200190815260200160002060009054906101000a900460ff16905092915050565b6000801b81565b610b458261080e565b610b4e81610e5a565b610b588383610f56565b505050565b610b65610c4a565b600073ffffffffffffffffffffffffffffffffffffffff168173ffffffffffffffffffffffffffffffffffffffff1603610bd4576040517f08c379a0000000000000000000000000000000000000000000000000000000008152600401610bcb906120d0565b60405180910390fd5b610bdd81611038565b50565b60007f01ffc9a7000000000000000000000000000000000000000000000000000000007bffffffffffffffffffffffffffffffffffffffffffffffffffffffff1916827bffffffffffffffffffffffffffffffffffffffffffffffffffffffff1916149050919050565b610c52610f4e565b73ffffffffffffffffffffffffffffffffffffffff16610c70610aa1565b73ffffffffffffffffffffffffffffffffffffffff1614610cc6576040517f08c379a0000000000000000000000000000000000000000000000000000000008152600401610cbd9061213c565b60405180910390fd5b565b610cd0610c4a565b8082610cdc919061215c565b67ffffffffffffffff16471015610d28576040517f08c379a0000000000000000000000000000000000000000000000000000000008152600401610d1f9061220c565b60405180910390fd5b6003600081548110610d3d57610d3c611dbc565b5b906000526020600020906003020160000160009054906101000a900473ffffffffffffffffffffffffffffffffffffffff1673ffffffffffffffffffffffffffffffffffffffff166108fc8367ffffffffffffffff169081150290604051600060405180830381858888f19350505050158015610dbe573d6000803e3d6000fd5b506003600181548110610dd457610dd3611dbc565b5b906000526020600020906003020160000160009054906101000a900473ffffffffffffffffffffffffffffffffffffffff1673ffffffffffffffffffffffffffffffffffffffff166108fc8267ffffffffffffffff169081150290604051600060405180830381858888f19350505050158015610e55573d6000803e3d6000fd5b505050565b610e6b81610e66610f4e565b6110fc565b50565b610e788282610aca565b610f4a57600180600084815260200190815260200160002060000160008373ffffffffffffffffffffffffffffffffffffffff1673ffffffffffffffffffffffffffffffffffffffff16815260200190815260200160002060006101000a81548160ff021916908315150217905550610eef610f4e565b73ffffffffffffffffffffffffffffffffffffffff168173ffffffffffffffffffffffffffffffffffffffff16837f2f8788117e7eff1d82e926ec794901d17c78024a50270940304540a733656f0d60405160405180910390a45b5050565b600033905090565b610f608282610aca565b156110345760006001600084815260200190815260200160002060000160008373ffffffffffffffffffffffffffffffffffffffff1673ffffffffffffffffffffffffffffffffffffffff16815260200190815260200160002060006101000a81548160ff021916908315150217905550610fd9610f4e565b73ffffffffffffffffffffffffffffffffffffffff168173ffffffffffffffffffffffffffffffffffffffff16837ff6391f5c32d9c69d2a47ea670b442974b53935d1edc7fd64eb21e047a839171b60405160405180910390a45b5050565b60008060009054906101000a900473ffffffffffffffffffffffffffffffffffffffff169050816000806101000a81548173ffffffffffffffffffffffffffffffffffffffff021916908373ffffffffffffffffffffffffffffffffffffffff1602179055508173ffffffffffffffffffffffffffffffffffffffff168173ffffffffffffffffffffffffffffffffffffffff167f8be0079c531659141344cd1fd0a4f28419497f9722a3daafe3b4186f6b6457e060405160405180910390a35050565b6111068282610aca565b6111955761112b8173ffffffffffffffffffffffffffffffffffffffff166014611199565b6111398360001c6020611199565b60405160200161114a929190612300565b6040516020818303038152906040526040517f08c379a000000000000000000000000000000000000000000000000000000000815260040161118c91906118b2565b60405180910390fd5b5050565b6060600060028360026111ac919061233a565b6111b69190612394565b67ffffffffffffffff8111156111cf576111ce611a1d565b5b6040519080825280601f01601f1916602001820160405280156112015781602001600182028036833780820191505090505b5090507f30000000000000000000000000000000000000000000000000000000000000008160008151811061123957611238611dbc565b5b60200101907effffffffffffffffffffffffffffffffffffffffffffffffffffffffffffff1916908160001a9053507f78000000000000000000000000000000000000000000000000000000000000008160018151811061129d5761129c611dbc565b5b60200101907effffffffffffffffffffffffffffffffffffffffffffffffffffffffffffff1916908160001a905350600060018460026112dd919061233a565b6112e79190612394565b90505b6001811115611387577f3031323334353637383961626364656600000000000000000000000000000000600f86166010811061132957611328611dbc565b5b1a60f81b8282815181106113405761133f611dbc565b5b60200101907effffffffffffffffffffffffffffffffffffffffffffffffffffffffffffff1916908160001a905350600485901c945080611380906123ea565b90506112ea565b50600084146113cb576040517f08c379a00000000000000000000000000000000000000000000000000000000081526004016113c29061245f565b60405180910390fd5b8091505092915050565b6040518060400160405280600073ffffffffffffffffffffffffffffffffffffffff168152602001600081525090565b600080fd5b600080fd5b60007fffffffff0000000000000000000000000000000000000000000000000000000082169050919050565b6114448161140f565b811461144f57600080fd5b50565b6000813590506114618161143b565b92915050565b60006020828403121561147d5761147c611405565b5b600061148b84828501611452565b91505092915050565b60008115159050919050565b6114a981611494565b82525050565b60006020820190506114c460008301846114a0565b92915050565b600067ffffffffffffffff82169050919050565b6114e7816114ca565b81146114f257600080fd5b50565b600081359050611504816114de565b92915050565b6000806040838503121561152157611520611405565b5b600061152f858286016114f5565b9250506020611540858286016114f5565b9150509250929050565b600073ffffffffffffffffffffffffffffffffffffffff82169050919050565b60006115758261154a565b9050919050565b6115858161156a565b811461159057600080fd5b50565b6000813590506115a28161157c565b92915050565b6000819050919050565b6115bb816115a8565b81146115c657600080fd5b50565b6000813590506115d8816115b2565b92915050565b600080fd5b600080fd5b600080fd5b60008083601f840112611603576116026115de565b5b8235905067ffffffffffffffff8111156116205761161f6115e3565b5b60208301915083600182028301111561163c5761163b6115e8565b5b9250929050565b60008060008060006080868803121561165f5761165e611405565b5b600061166d88828901611593565b955050602061167e88828901611593565b945050604061168f888289016115c9565b935050606086013567ffffffffffffffff8111156116b0576116af61140a565b5b6116bc888289016115ed565b92509250509295509295909350565b6116d48161140f565b82525050565b60006020820190506116ef60008301846116cb565b92915050565b60006020828403121561170b5761170a611405565b5b6000611719848285016115c9565b91505092915050565b61172b816115a8565b82525050565b60006020820190506117466000830184611722565b92915050565b6000819050919050565b61175f8161174c565b811461176a57600080fd5b50565b60008135905061177c81611756565b92915050565b60006020828403121561179857611797611405565b5b60006117a68482850161176d565b91505092915050565b6117b88161174c565b82525050565b60006020820190506117d360008301846117af565b92915050565b600080604083850312156117f0576117ef611405565b5b60006117fe8582860161176d565b925050602061180f85828601611593565b9150509250929050565b600081519050919050565b600082825260208201905092915050565b60005b83811015611853578082015181840152602081019050611838565b83811115611862576000848401525b50505050565b6000601f19601f8301169050919050565b600061188482611819565b61188e8185611824565b935061189e818560208601611835565b6118a781611868565b840191505092915050565b600060208201905081810360008301526118cc8184611879565b905092915050565b600080604083850312156118eb576118ea611405565b5b60006118f9858286016115c9565b925050602061190a858286016115c9565b9150509250929050565b61191d8161156a565b82525050565b61192c816115a8565b82525050565b6040820160008201516119486000850182611914565b50602082015161195b6020850182611923565b50505050565b60006040820190506119766000830184611932565b92915050565b60006119878261154a565b9050919050565b6119978161197c565b82525050565b60006040820190506119b2600083018561198e565b6119bf6020830184611722565b9392505050565b6119cf8161156a565b82525050565b60006020820190506119ea60008301846119c6565b92915050565b600060208284031215611a0657611a05611405565b5b6000611a1484828501611593565b91505092915050565b7f4e487b7100000000000000000000000000000000000000000000000000000000600052604160045260246000fd5b7f4e487b7100000000000000000000000000000000000000000000000000000000600052602260045260246000fd5b60006002820490506001821680611a9357607f821691505b602082108103611aa657611aa5611a4c565b5b50919050565b60008190508160005260206000209050919050565b60006020601f8301049050919050565b600082821b905092915050565b600060088302611b0e7fffffffffffffffffffffffffffffffffffffffffffffffffffffffffffffffff82611ad1565b611b188683611ad1565b95508019841693508086168417925050509392505050565b6000819050919050565b6000611b55611b50611b4b846115a8565b611b30565b6115a8565b9050919050565b6000819050919050565b611b6f83611b3a565b611b83611b7b82611b5c565b848454611ade565b825550505050565b600090565b611b98611b8b565b611ba3818484611b66565b505050565b5b81811015611bc757611bbc600082611b90565b600181019050611ba9565b5050565b601f821115611c0c57611bdd81611aac565b611be684611ac1565b81016020851015611bf5578190505b611c09611c0185611ac1565b830182611ba8565b50505b505050565b600082821c905092915050565b6000611c2f60001984600802611c11565b1980831691505092915050565b6000611c488383611c1e565b9150826002028217905092915050565b611c6182611819565b67ffffffffffffffff811115611c7a57611c79611a1d565b5b611c848254611a7b565b611c8f828285611bcb565b600060209050601f831160018114611cc25760008415611cb0578287015190505b611cba8582611c3c565b865550611d22565b601f198416611cd086611aac565b60005b82811015611cf857848901518255600182019150602085019450602081019050611cd3565b86831015611d155784890151611d11601f891682611c1e565b8355505b6001600288020188555050505b505050505050565b7f43616c6c6572206973206e6f74206120706172747920696e766f6c766564206960008201527f6e20746865206469737075746500000000000000000000000000000000000000602082015250565b6000611d86602d83611824565b9150611d9182611d2a565b604082019050919050565b60006020820190508181036000830152611db581611d79565b9050919050565b7f4e487b7100000000000000000000000000000000000000000000000000000000600052603260045260246000fd5b7f5061727479203000000000000000000000000000000000000000000000000000600082015250565b6000611e21600783611824565b9150611e2c82611deb565b602082019050919050565b60006020820190508181036000830152611e5081611e14565b9050919050565b7f5061727479203100000000000000000000000000000000000000000000000000600082015250565b6000611e8d600783611824565b9150611e9882611e57565b602082019050919050565b60006020820190508181036000830152611ebc81611e80565b9050919050565b7f4578706563746564202766726f6d2720746f206265207468652061646472657360008201527f73206f6620746865206669727374206f72207365636f6e642070617274790000602082015250565b6000611f1f603e83611824565b9150611f2a82611ec3565b604082019050919050565b60006020820190508181036000830152611f4e81611f12565b9050919050565b7f4e487b7100000000000000000000000000000000000000000000000000000000600052601160045260246000fd5b6000611f8f826115a8565b91507fffffffffffffffffffffffffffffffffffffffffffffffffffffffffffffffff8203611fc157611fc0611f55565b5b600182019050919050565b7f416363657373436f6e74726f6c3a2063616e206f6e6c792072656e6f756e636560008201527f20726f6c657320666f722073656c660000000000000000000000000000000000602082015250565b6000612028602f83611824565b915061203382611fcc565b604082019050919050565b600060208201905081810360008301526120578161201b565b9050919050565b7f4f776e61626c653a206e6577206f776e657220697320746865207a65726f206160008201527f6464726573730000000000000000000000000000000000000000000000000000602082015250565b60006120ba602683611824565b91506120c58261205e565b604082019050919050565b600060208201905081810360008301526120e9816120ad565b9050919050565b7f4f776e61626c653a2063616c6c6572206973206e6f7420746865206f776e6572600082015250565b6000612126602083611824565b9150612131826120f0565b602082019050919050565b6000602082019050818103600083015261215581612119565b9050919050565b6000612167826114ca565b9150612172836114ca565b92508267ffffffffffffffff0382111561218f5761218e611f55565b5b828201905092915050565b7f496e73756666696369656e742062616c616e636520746f20706572666f726d2060008201527f746865206f7065726174696f6e00000000000000000000000000000000000000602082015250565b60006121f6602d83611824565b91506122018261219a565b604082019050919050565b60006020820190508181036000830152612225816121e9565b9050919050565b600081905092915050565b7f416363657373436f6e74726f6c3a206163636f756e7420000000000000000000600082015250565b600061226d60178361222c565b915061227882612237565b601782019050919050565b600061228e82611819565b612298818561222c565b93506122a8818560208601611835565b80840191505092915050565b7f206973206d697373696e6720726f6c6520000000000000000000000000000000600082015250565b60006122ea60118361222c565b91506122f5826122b4565b601182019050919050565b600061230b82612260565b91506123178285612283565b9150612322826122dd565b915061232e8284612283565b91508190509392505050565b6000612345826115a8565b9150612350836115a8565b9250817fffffffffffffffffffffffffffffffffffffffffffffffffffffffffffffffff048311821515161561238957612388611f55565b5b828202905092915050565b600061239f826115a8565b91506123aa836115a8565b9250827fffffffffffffffffffffffffffffffffffffffffffffffffffffffffffffffff038211156123df576123de611f55565b5b828201905092915050565b60006123f5826115a8565b91506000820361240857612407611f55565b5b600182039050919050565b7f537472696e67733a20686578206c656e67746820696e73756666696369656e74600082015250565b6000612449602083611824565b915061245482612413565b602082019050919050565b600060208201905081810360008301526124788161243c565b905091905056fea26469706673582212206ddf0a8dcf3c396981c1c90d40ee60ce5806111eb29cf3d764872533adff9e5364736f6c634300080f0033",
  "immutableReferences": {},
  "source": "//SPDX-License-Identifier: UNLICENSED\n\npragma solidity ^0.8.0;\n\nimport \"@openzeppelin/contracts/access/Ownable.sol\";\nimport \"@openzeppelin/contracts/access/AccessControl.sol\";\nimport \"@openzeppelin/contracts/token/ERC721/IERC721Receiver.sol\";\nimport \"@openzeppelin/contracts/utils/Strings.sol\";\n\ncontract Dispute is Ownable, AccessControl, IERC721Receiver{ \n\n    bytes32 public constant PARTY_ROLE = keccak256(\"PARTY_ROLE\");\n\n    struct Evidence {\n        address contractAddress;\n        uint256 tokenId;\n    }\n\n    struct Party {\n        address payable add;\n        mapping(uint => Evidence) evidence;\n        uint evidenceSize;\n    }\n\n    string state;\n\n    //TODO, esto debera ser pblico?\n    Party[] public parties;\n\n\n    modifier assertTwoParties(){\n        assert(parties.length == 2);\n        _;\n    }\n\n    constructor(address _firstParty, address _secondParty){\n        _setupRole(PARTY_ROLE, _firstParty);\n        _setupRole(PARTY_ROLE, _secondParty);\n        \n        _createNewParty(_firstParty);\n        _createNewParty(_secondParty);\n\n        state = 'OPEN';\n    }\n\n    function _createNewParty(address _add) private{\n        Party storage p = parties.push();\n        p.add = payable(_add);\n        p.evidenceSize = 0;\n        p.evidence[0] = Evidence(0x0000000000000000000000000000000000000000, 1);\n    }\n\n\n    /*\n    Recibir un token ERC721 de evidencia y agregarlo a ndice de evidencia provista por el party que lo llam.\n    */\n    function onERC721Received(address operator, address from, uint256 tokenId, bytes calldata data) public returns(bytes4) {\n\n        //TODO Slo debe permitir recibir el token si fue minteado por el mismo address que lo enva.\n        require(hasRole(PARTY_ROLE, from), \"Caller is not a party involved in the dispute\");\n        \n        Party storage party;\n        if(from == parties[0].add){\n            party = parties[0];\n            require(hasRole(PARTY_ROLE, from), \"Party 0\");\n        } else if(from == parties[1].add){\n            party = parties[1];\n            require(hasRole(PARTY_ROLE, from), \"Party 1\");\n        } else {\n            require(false, \"Expected 'from' to be the address of the first or second party\");\n            return bytes4(0x0);\n        }\n        \n        party.evidence[party.evidenceSize] = Evidence(operator, tokenId);\n        party.evidenceSize++;\n\n        return this.onERC721Received.selector;\n    }\n\n    function getCurrentState() public view returns(string memory){\n        return state;\n    }\n\n    function getNumberOfElementsFromParty(uint party) public view returns(uint) {\n        return parties[party].evidenceSize;\n    }\n\n    function getEvidenceFrom(uint party, uint evidenceIndex) public view returns(Evidence memory){\n        return parties[party].evidence[evidenceIndex];\n    }\n\n    function solveDispute(uint64 _amountFirstParty, uint64 _amountSecondParty) public onlyOwner {\n\n        //TODO, slo se debera resovler la disputa si las dos partes han puesto dinero en el contrato.\n\n        disperseMoney(_amountFirstParty, _amountSecondParty);\n\n        state = 'CLOSED';\n\n    }\n\n    function disperseMoney(uint64 _amountFirstParty, uint64 _amountSecondParty) private onlyOwner {\n        //1. Debe recibir addresses y cantidad de dinero a enviar a cada address.\n        \n        //2. Debe verificar si balance que tiene es suficiente para realizar los pagos.\n\n        //TODO, qu pasa si amountFirstParty + amountSecondParty > max uint64?\n        require(address(this).balance >= _amountFirstParty + _amountSecondParty, \"Insufficient balance to perform the operation\");\n\n        //3. Debe realizar los pagos.\n        parties[0].add.transfer(_amountFirstParty);\n        parties[1].add.transfer(_amountSecondParty);\n    }\n\n}",
  "sourcePath": "/home/felipe/Documents/Proyectos_Personales/Web3Dispute/Contracts/contracts/dispute/Dispute.sol",
  "compiler": {
    "name": "solc",
    "version": "0.8.15+commit.e14f2714.Emscripten.clang"
  },
  "schemaVersion": "3.4.8",
  "updatedAt": "2022-08-10T22:23:41.757Z",
  "networkType": "ethereum",
  "devdoc": {
    "kind": "dev",
    "methods": {
      "getRoleAdmin(bytes32)": {
        "details": "Returns the admin role that controls `role`. See {grantRole} and {revokeRole}. To change a role's admin, use {_setRoleAdmin}."
      },
      "grantRole(bytes32,address)": {
        "details": "Grants `role` to `account`. If `account` had not been already granted `role`, emits a {RoleGranted} event. Requirements: - the caller must have ``role``'s admin role. May emit a {RoleGranted} event."
      },
      "hasRole(bytes32,address)": {
        "details": "Returns `true` if `account` has been granted `role`."
      },
      "onERC721Received(address,address,uint256,bytes)": {
        "details": "Whenever an {IERC721} `tokenId` token is transferred to this contract via {IERC721-safeTransferFrom} by `operator` from `from`, this function is called. It must return its Solidity selector to confirm the token transfer. If any other value is returned or the interface is not implemented by the recipient, the transfer will be reverted. The selector can be obtained in Solidity with `IERC721Receiver.onERC721Received.selector`."
      },
      "owner()": {
        "details": "Returns the address of the current owner."
      },
      "renounceOwnership()": {
        "details": "Leaves the contract without owner. It will not be possible to call `onlyOwner` functions anymore. Can only be called by the current owner. NOTE: Renouncing ownership will leave the contract without an owner, thereby removing any functionality that is only available to the owner."
      },
      "renounceRole(bytes32,address)": {
        "details": "Revokes `role` from the calling account. Roles are often managed via {grantRole} and {revokeRole}: this function's purpose is to provide a mechanism for accounts to lose their privileges if they are compromised (such as when a trusted device is misplaced). If the calling account had been revoked `role`, emits a {RoleRevoked} event. Requirements: - the caller must be `account`. May emit a {RoleRevoked} event."
      },
      "revokeRole(bytes32,address)": {
        "details": "Revokes `role` from `account`. If `account` had been granted `role`, emits a {RoleRevoked} event. Requirements: - the caller must have ``role``'s admin role. May emit a {RoleRevoked} event."
      },
      "supportsInterface(bytes4)": {
        "details": "See {IERC165-supportsInterface}."
      },
      "transferOwnership(address)": {
        "details": "Transfers ownership of the contract to a new account (`newOwner`). Can only be called by the current owner."
      }
    },
    "version": 1
  },
  "userdoc": {
    "kind": "user",
    "methods": {},
    "version": 1
  }
}